{
  "contracts/AutoRepaymentVaultManager.sol": {
    "AutoRepaymentVaultManager": {
      "abi": [
        {
          "inputs": [
            {
              "internalType": "address",
              "name": "_stablecoin",
              "type": "address"
            },
            {
              "internalType": "address",
              "name": "_priceOracle",
              "type": "address"
            }
          ],
          "stateMutability": "nonpayable",
          "type": "constructor"
        },
        {
          "inputs": [
            {
              "internalType": "address",
              "name": "owner",
              "type": "address"
            }
          ],
          "name": "OwnableInvalidOwner",
          "type": "error"
        },
        {
          "inputs": [
            {
              "internalType": "address",
              "name": "account",
              "type": "address"
            }
          ],
          "name": "OwnableUnauthorizedAccount",
          "type": "error"
        },
        {
          "inputs": [],
          "name": "ReentrancyGuardReentrantCall",
          "type": "error"
        },
        {
          "anonymous": false,
          "inputs": [
            {
              "indexed": true,
              "internalType": "address",
              "name": "user",
              "type": "address"
            },
            {
              "indexed": false,
              "internalType": "uint256",
              "name": "yieldAmount",
              "type": "uint256"
            },
            {
              "indexed": false,
              "internalType": "uint256",
              "name": "debtReduction",
              "type": "uint256"
            }
          ],
          "name": "AutoYieldApplied",
          "type": "event"
        },
        {
          "anonymous": false,
          "inputs": [
            {
              "indexed": true,
              "internalType": "address",
              "name": "keeper",
              "type": "address"
            },
            {
              "indexed": false,
              "internalType": "uint256",
              "name": "processedVaults",
              "type": "uint256"
            }
          ],
          "name": "KeeperExecuted",
          "type": "event"
        },
        {
          "anonymous": false,
          "inputs": [
            {
              "indexed": true,
              "internalType": "address",
              "name": "user",
              "type": "address"
            },
            {
              "indexed": false,
              "internalType": "uint256",
              "name": "collateralSeized",
              "type": "uint256"
            }
          ],
          "name": "Liquidated",
          "type": "event"
        },
        {
          "anonymous": false,
          "inputs": [
            {
              "indexed": true,
              "internalType": "address",
              "name": "user",
              "type": "address"
            },
            {
              "indexed": false,
              "internalType": "uint256",
              "name": "amount",
              "type": "uint256"
            }
          ],
          "name": "LoanIssued",
          "type": "event"
        },
        {
          "anonymous": false,
          "inputs": [
            {
              "indexed": true,
              "internalType": "address",
              "name": "previousOwner",
              "type": "address"
            },
            {
              "indexed": true,
              "internalType": "address",
              "name": "newOwner",
              "type": "address"
            }
          ],
          "name": "OwnershipTransferred",
          "type": "event"
        },
        {
          "anonymous": false,
          "inputs": [
            {
              "indexed": true,
              "internalType": "address",
              "name": "user",
              "type": "address"
            }
          ],
          "name": "VaultClosed",
          "type": "event"
        },
        {
          "anonymous": false,
          "inputs": [
            {
              "indexed": true,
              "internalType": "address",
              "name": "user",
              "type": "address"
            },
            {
              "indexed": false,
              "internalType": "address",
              "name": "collateral",
              "type": "address"
            },
            {
              "indexed": false,
              "internalType": "uint256",
              "name": "amount",
              "type": "uint256"
            }
          ],
          "name": "VaultCreated",
          "type": "event"
        },
        {
          "inputs": [],
          "name": "BASIS_POINTS",
          "outputs": [
            {
              "internalType": "uint256",
              "name": "",
              "type": "uint256"
            }
          ],
          "stateMutability": "view",
          "type": "function"
        },
        {
          "inputs": [],
          "name": "LIQUIDATION_THRESHOLD",
          "outputs": [
            {
              "internalType": "uint256",
              "name": "",
              "type": "uint256"
            }
          ],
          "stateMutability": "view",
          "type": "function"
        },
        {
          "inputs": [],
          "name": "LTV_RATIO",
          "outputs": [
            {
              "internalType": "uint256",
              "name": "",
              "type": "uint256"
            }
          ],
          "stateMutability": "view",
          "type": "function"
        },
        {
          "inputs": [],
          "name": "PROTOCOL_FEE",
          "outputs": [
            {
              "internalType": "uint256",
              "name": "",
              "type": "uint256"
            }
          ],
          "stateMutability": "view",
          "type": "function"
        },
        {
          "inputs": [
            {
              "internalType": "address",
              "name": "keeper",
              "type": "address"
            }
          ],
          "name": "addKeeper",
          "outputs": [],
          "stateMutability": "nonpayable",
          "type": "function"
        },
        {
          "inputs": [
            {
              "internalType": "address",
              "name": "collateral",
              "type": "address"
            }
          ],
          "name": "addSupportedCollateral",
          "outputs": [],
          "stateMutability": "nonpayable",
          "type": "function"
        },
        {
          "inputs": [
            {
              "internalType": "uint256",
              "name": "",
              "type": "uint256"
            }
          ],
          "name": "allVaultOwners",
          "outputs": [
            {
              "internalType": "address",
              "name": "",
              "type": "address"
            }
          ],
          "stateMutability": "view",
          "type": "function"
        },
        {
          "inputs": [],
          "name": "autoCheckInterval",
          "outputs": [
            {
              "internalType": "uint256",
              "name": "",
              "type": "uint256"
            }
          ],
          "stateMutability": "view",
          "type": "function"
        },
        {
          "inputs": [],
          "name": "autoRepaymentCount",
          "outputs": [
            {
              "internalType": "uint256",
              "name": "",
              "type": "uint256"
            }
          ],
          "stateMutability": "view",
          "type": "function"
        },
        {
          "inputs": [
            {
              "internalType": "address",
              "name": "collateralAsset",
              "type": "address"
            },
            {
              "internalType": "uint256",
              "name": "collateralAmount",
              "type": "uint256"
            },
            {
              "internalType": "uint256",
              "name": "borrowAmount",
              "type": "uint256"
            }
          ],
          "name": "depositCollateralAndBorrow",
          "outputs": [],
          "stateMutability": "nonpayable",
          "type": "function"
        },
        {
          "inputs": [
            {
              "internalType": "uint256",
              "name": "start",
              "type": "uint256"
            },
            {
              "internalType": "uint256",
              "name": "limit",
              "type": "uint256"
            }
          ],
          "name": "getAllVaultOwners",
          "outputs": [
            {
              "internalType": "address[]",
              "name": "",
              "type": "address[]"
            }
          ],
          "stateMutability": "view",
          "type": "function"
        },
        {
          "inputs": [
            {
              "internalType": "address",
              "name": "user",
              "type": "address"
            }
          ],
          "name": "getVaultInfo",
          "outputs": [
            {
              "internalType": "uint256",
              "name": "collateral",
              "type": "uint256"
            },
            {
              "internalType": "uint256",
              "name": "debt",
              "type": "uint256"
            },
            {
              "internalType": "uint256",
              "name": "pendingYield",
              "type": "uint256"
            },
            {
              "internalType": "uint256",
              "name": "healthFactor",
              "type": "uint256"
            },
            {
              "internalType": "bool",
              "name": "active",
              "type": "bool"
            },
            {
              "internalType": "bool",
              "name": "readyForAutoRepay",
              "type": "bool"
            }
          ],
          "stateMutability": "view",
          "type": "function"
        },
        {
          "inputs": [
            {
              "internalType": "address",
              "name": "",
              "type": "address"
            }
          ],
          "name": "keepers",
          "outputs": [
            {
              "internalType": "bool",
              "name": "",
              "type": "bool"
            }
          ],
          "stateMutability": "view",
          "type": "function"
        },
        {
          "inputs": [],
          "name": "minYieldThreshold",
          "outputs": [
            {
              "internalType": "uint256",
              "name": "",
              "type": "uint256"
            }
          ],
          "stateMutability": "view",
          "type": "function"
        },
        {
          "inputs": [],
          "name": "owner",
          "outputs": [
            {
              "internalType": "address",
              "name": "",
              "type": "address"
            }
          ],
          "stateMutability": "view",
          "type": "function"
        },
        {
          "inputs": [],
          "name": "priceOracle",
          "outputs": [
            {
              "internalType": "address",
              "name": "",
              "type": "address"
            }
          ],
          "stateMutability": "view",
          "type": "function"
        },
        {
          "inputs": [
            {
              "internalType": "address",
              "name": "user",
              "type": "address"
            }
          ],
          "name": "processAutoRepayment",
          "outputs": [],
          "stateMutability": "nonpayable",
          "type": "function"
        },
        {
          "inputs": [
            {
              "internalType": "address[]",
              "name": "users",
              "type": "address[]"
            }
          ],
          "name": "processMultipleAutoRepayments",
          "outputs": [],
          "stateMutability": "nonpayable",
          "type": "function"
        },
        {
          "inputs": [],
          "name": "renounceOwnership",
          "outputs": [],
          "stateMutability": "nonpayable",
          "type": "function"
        },
        {
          "inputs": [],
          "name": "stablecoin",
          "outputs": [
            {
              "internalType": "address",
              "name": "",
              "type": "address"
            }
          ],
          "stateMutability": "view",
          "type": "function"
        },
        {
          "inputs": [
            {
              "internalType": "address",
              "name": "",
              "type": "address"
            }
          ],
          "name": "supportedCollateral",
          "outputs": [
            {
              "internalType": "bool",
              "name": "",
              "type": "bool"
            }
          ],
          "stateMutability": "view",
          "type": "function"
        },
        {
          "inputs": [],
          "name": "totalProtocolRevenue",
          "outputs": [
            {
              "internalType": "uint256",
              "name": "",
              "type": "uint256"
            }
          ],
          "stateMutability": "view",
          "type": "function"
        },
        {
          "inputs": [],
          "name": "totalVaults",
          "outputs": [
            {
              "internalType": "uint256",
              "name": "",
              "type": "uint256"
            }
          ],
          "stateMutability": "view",
          "type": "function"
        },
        {
          "inputs": [
            {
              "internalType": "address",
              "name": "newOwner",
              "type": "address"
            }
          ],
          "name": "transferOwnership",
          "outputs": [],
          "stateMutability": "nonpayable",
          "type": "function"
        },
        {
          "inputs": [
            {
              "internalType": "address",
              "name": "",
              "type": "address"
            }
          ],
          "name": "vaults",
          "outputs": [
            {
              "internalType": "uint256",
              "name": "collateralAmount",
              "type": "uint256"
            },
            {
              "internalType": "uint256",
              "name": "debtAmount",
              "type": "uint256"
            },
            {
              "internalType": "uint256",
              "name": "lastYieldClaim",
              "type": "uint256"
            },
            {
              "internalType": "address",
              "name": "collateralAsset",
              "type": "address"
            },
            {
              "internalType": "bool",
              "name": "isActive",
              "type": "bool"
            },
            {
              "internalType": "uint256",
              "name": "lastAutoCheck",
              "type": "uint256"
            }
          ],
          "stateMutability": "view",
          "type": "function"
        },
        {
          "inputs": [],
          "name": "withdrawCollateral",
          "outputs": [],
          "stateMutability": "nonpayable",
          "type": "function"
        }
      ],
      "evm": {
        "bytecode": {
          "linkReferences": {},
          "object": "60c060405266038d7ea4c68000600755610e106008553480156200002257600080fd5b50604051620018e1380380620018e183398101604081905262000045916200011e565b600160005533806200007157604051631e4fbdf760e01b81526000600482015260240160405180910390fd5b6200007c81620000af565b506001600160a01b039182166080521660a052336000908152600460205260409020805460ff1916600117905562000156565b600180546001600160a01b038381166001600160a01b0319831681179093556040519116919082907f8be0079c531659141344cd1fd0a4f28419497f9722a3daafe3b4186f6b6457e090600090a35050565b80516001600160a01b03811681146200011957600080fd5b919050565b600080604083850312156200013257600080fd5b6200013d8362000101565b91506200014d6020840162000101565b90509250929050565b60805160a05161174962000198600039600081816101b3015281816105a001528181610d0301526110a90152600081816103ee01526107e501526117496000f3fe608060405234801561001057600080fd5b506004361061018e5760003560e01c80638fa3c532116100de578063b5d4a12611610097578063e73a4e8811610071578063e73a4e88146103d6578063e9cbd822146103e9578063f2fde38b14610410578063fa550eba1461042357600080fd5b8063b5d4a126146103b2578063e1f1c4a7146103c5578063e68f2195146103cd57600080fd5b80638fa3c5321461029f57806390229af7146102b257806390a8ae9b146102f65780639a398580146102fe578063a622ee7c1461031e578063ab19582d146103a957600080fd5b80635696b1891161014b578063715018a611610125578063715018a6146102745780638c37f11d1461027c5780638d654023146102855780638da5cb5b1461028e57600080fd5b80635696b1891461025b57806357ed6c171461026357806359c153be1461026c57600080fd5b80630b4501fd146101935780632630c12f146101ae5780633bbd64bc146101ed5780634032b72b1461022057806344def84314610235578063536db2e614610248575b600080fd5b61019b601481565b6040519081526020015b60405180910390f35b6101d57f000000000000000000000000000000000000000000000000000000000000000081565b6040516001600160a01b0390911681526020016101a5565b6102106101fb3660046114cc565b60046020526000908152604090205460ff1681565b60405190151581526020016101a5565b61023361022e3660046114cc565b610446565b005b6102336102433660046114ee565b610472565b6102336102563660046114cc565b6108e5565b61019b604681565b61019b600a5481565b610233610911565b610233610a49565b61019b60095481565b61019b60065481565b6001546001600160a01b03166101d5565b6102336102ad366004611521565b610a5b565b6102c56102c03660046114cc565b610bb9565b60408051968752602087019590955293850192909252606084015215156080830152151560a082015260c0016101a5565b61019b605581565b61031161030c366004611596565b610dbe565b6040516101a591906115b8565b61037161032c3660046114cc565b60026020819052600091825260409091208054600182015492820154600383015460049093015491939290916001600160a01b03821691600160a01b900460ff169086565b604080519687526020870195909552938501929092526001600160a01b031660608401521515608083015260a082015260c0016101a5565b61019b60085481565b6101d56103c0366004611605565b610ebd565b61019b606481565b61019b60075481565b6102336103e43660046114cc565b610ee7565b6101d57f000000000000000000000000000000000000000000000000000000000000000081565b61023361041e3660046114cc565b6113cc565b6102106104313660046114cc565b60036020526000908152604090205460ff1681565b61044e611407565b6001600160a01b03166000908152600460205260409020805460ff19166001179055565b61047a611434565b6001600160a01b03831660009081526003602052604090205460ff166104e05760405162461bcd60e51b8152602060048201526016602482015275155b9cdd5c1c1bdc9d19590818dbdb1b185d195c985b60521b60448201526064015b60405180910390fd5b33600090815260026020526040902060030154600160a01b900460ff16156105395760405162461bcd60e51b815260206004820152600c60248201526b5661756c742065786973747360a01b60448201526064016104d7565b600081116105775760405162461bcd60e51b815260206004820152600b60248201526a4d75737420626f72726f7760a81b60448201526064016104d7565b604051630bf33c3f60e21b81526001600160a01b038481166004830152602482018490526000917f000000000000000000000000000000000000000000000000000000000000000090911690632fccf0fc90604401602060405180830381865afa1580156105e9573d6000803e3d6000fd5b505050506040513d601f19601f8201168201806040525081019061060d919061161e565b90506000606461061e60468461164d565b6106289190611664565b90508083111561066e5760405162461bcd60e51b8152602060048201526011602482015270115e18d959591cc8131515881b1a5b5a5d607a1b60448201526064016104d7565b6040516323b872dd60e01b8152336004820152306024820152604481018590526001600160a01b038616906323b872dd906064016020604051808303816000875af11580156106c1573d6000803e3d6000fd5b505050506040513d601f19601f820116820180604052508101906106e59190611686565b506040805160c0810182528581526020808201868152428385018181526001600160a01b03808c166060870190815260016080880181815260a089019586523360008181526002998a90529a8b2099518a559651898301559351968801969096555160038701805493511515600160a01b026001600160a81b031990941691909216179190911790555160049093019290925560058054918201815583527f036b6384b5eca791c62761152d0c79bb0604c104a5fb6f4eb0703f3154bb3db00180546001600160a01b031916909117905560068054916107c4836116a8565b909155505060405163a9059cbb60e01b8152336004820152602481018490527f00000000000000000000000000000000000000000000000000000000000000006001600160a01b03169063a9059cbb906044016020604051808303816000875af1158015610836573d6000803e3d6000fd5b505050506040513d601f19601f8201168201806040525081019061085a9190611686565b50604080516001600160a01b03871681526020810186905233917f0b045af6aff86dd2cda5342fd0329a354dc66759ff1eda00d7ecf13a76c7fb3b910160405180910390a260405183815233907f7a954f5289898ac88c79469be62462b769f41c4f171a4f4591ef5a62b6fbf74f9060200160405180910390a250506108e06001600055565b505050565b6108ed611407565b6001600160a01b03166000908152600360205260409020805460ff19166001179055565b610919611434565b3360009081526002602052604090206003810154600160a01b900460ff16801561094557506001810154155b6109835760405162461bcd60e51b815260206004820152600f60248201526e43616e6e6f7420776974686472617760881b60448201526064016104d7565b805460038201805460ff60a01b1981169091556000835560405163a9059cbb60e01b8152336004820152602481018390526001600160a01b0390911690819063a9059cbb906044016020604051808303816000875af11580156109ea573d6000803e3d6000fd5b505050506040513d601f19601f82011682018060405250810190610a0e9190611686565b5060405133907fe878654b01a78b867c21c011576ad0ce2b8ede58ec2b1f232ec8c3d0accc662c90600090a2505050610a476001600055565b565b610a51611407565b610a47600061145e565b610a63611434565b3360009081526004602052604090205460ff1680610a8b57506001546001600160a01b031633145b610ac45760405162461bcd60e51b815260206004820152600a6024820152692737ba1035b2b2b832b960b11b60448201526064016104d7565b6000805b82811015610b74573063e73a4e88858584818110610ae857610ae86116c1565b9050602002016020810190610afd91906114cc565b6040516001600160e01b031960e084901b1681526001600160a01b039091166004820152602401600060405180830381600087803b158015610b3e57600080fd5b505af1925050508015610b4f575060015b15610b625781610b5e816116a8565b9250505b80610b6c816116a8565b915050610ac8565b5060405181815233907f5a34ce705ecfde0b8be1b9c95bfb248047b914b480a5a7a0214d68d86062e7b19060200160405180910390a250610bb56001600055565b5050565b6001600160a01b038181166000908152600260208181526040808420815160c08101835281548152600182015493810193909352928301549082015260038201549384166060820152600160a01b90930460ff1615156080840181905260049091015460a0840152909182918291829182918291610c4c5760008060008060008096509650965096509650965050610db5565b80516020820151606083015160405163537bb13760e01b81526001600160a01b038c81166004830152939a50919850919091169063537bb13790602401602060405180830381865afa158015610ca6573d6000803e3d6000fd5b505050506040513d601f19601f82011682018060405250810190610cca919061161e565b94508515610d8a5760608101518151604051630bf33c3f60e21b81526001600160a01b03928316600482015260248101919091526000917f00000000000000000000000000000000000000000000000000000000000000001690632fccf0fc90604401602060405180830381865afa158015610d4a573d6000803e3d6000fd5b505050506040513d601f19601f82011682018060405250810190610d6e919061161e565b905086610d7c82606461164d565b610d869190611664565b9450505b600192506008548160a00151610da091906116d7565b4210158015610db157506007548510155b9150505b91939550919395565b600554606090600090610dd184866116d7565b11610de557610de083856116d7565b610de9565b6005545b90506000610df785836116ea565b67ffffffffffffffff811115610e0f57610e0f6116fd565b604051908082528060200260200182016040528015610e38578160200160208202803683370190505b509050845b82811015610eb25760058181548110610e5857610e586116c1565b6000918252602090912001546001600160a01b031682610e7888846116ea565b81518110610e8857610e886116c1565b6001600160a01b039092166020928302919091019091015280610eaa816116a8565b915050610e3d565b509150505b92915050565b60058181548110610ecd57600080fd5b6000918252602090912001546001600160a01b0316905081565b610eef611434565b3360009081526004602052604090205460ff1680610f1757506001546001600160a01b031633145b610f505760405162461bcd60e51b815260206004820152600a6024820152692737ba1035b2b2b832b960b11b60448201526064016104d7565b6001600160a01b03811660009081526002602052604090206003810154600160a01b900460ff168015610f87575060008160010154115b610fc35760405162461bcd60e51b815260206004820152600d60248201526c125b9d985b1a59081d985d5b1d609a1b60448201526064016104d7565b600381015460405163537bb13760e01b81526001600160a01b038481166004830152600092169063537bb13790602401602060405180830381865afa158015611010573d6000803e3d6000fd5b505050506040513d601f19601f82011682018060405250810190611034919061161e565b90506007548110156110785760405162461bcd60e51b815260206004820152600d60248201526c5969656c6420746f6f206c6f7760981b60448201526064016104d7565b60038201548254604051630bf33c3f60e21b81526001600160a01b03928316600482015260248101919091526000917f00000000000000000000000000000000000000000000000000000000000000001690632fccf0fc90604401602060405180830381865afa1580156110f0573d6000803e3d6000fd5b505050506040513d601f19601f82011682018060405250810190611114919061161e565b90506000836001015482606461112a919061164d565b6111349190611664565b905060788110156111795760405162461bcd60e51b815260206004820152600f60248201526e155b9a19585b1d1a1e481d985d5b1d608a1b60448201526064016104d7565b600384015460405163999927df60e01b81526001600160a01b038781166004830152600092169063999927df906024016020604051808303816000875af11580156111c8573d6000803e3d6000fd5b505050506040513d601f19601f820116820180604052508101906111ec919061161e565b9050806000036112005750505050506113bf565b6000606461120f60148461164d565b6112199190611664565b9050600061122782846116ea565b9050866001015481106112455750600186018054600090915561125f565b8087600101600082825461125991906116ea565b90915550505b42600288018190556004880155600980548391906000906112819084906116d7565b9091555050600a8054906000611296836116a8565b909155505060038701546001600160a01b031663a9059cbb6112c06001546001600160a01b031690565b6040516001600160e01b031960e084901b1681526001600160a01b039091166004820152602481018590526044016020604051808303816000875af115801561130d573d6000803e3d6000fd5b505050506040513d601f19601f820116820180604052508101906113319190611686565b5060408051848152602081018390526001600160a01b038a16917f56f9d080f52c224c1096cb80fadd8b3ff92a48c0b5aeacdc2bcd3ef1df98df30910160405180910390a286600101546000036113b7576040516001600160a01b038916907fe878654b01a78b867c21c011576ad0ce2b8ede58ec2b1f232ec8c3d0accc662c90600090a25b505050505050505b6113c96001600055565b50565b6113d4611407565b6001600160a01b0381166113fe57604051631e4fbdf760e01b8152600060048201526024016104d7565b6113c98161145e565b6001546001600160a01b03163314610a475760405163118cdaa760e01b81523360048201526024016104d7565b60026000540361145757604051633ee5aeb560e01b815260040160405180910390fd5b6002600055565b600180546001600160a01b038381166001600160a01b0319831681179093556040519116919082907f8be0079c531659141344cd1fd0a4f28419497f9722a3daafe3b4186f6b6457e090600090a35050565b80356001600160a01b03811681146114c757600080fd5b919050565b6000602082840312156114de57600080fd5b6114e7826114b0565b9392505050565b60008060006060848603121561150357600080fd5b61150c846114b0565b95602085013595506040909401359392505050565b6000806020838503121561153457600080fd5b823567ffffffffffffffff8082111561154c57600080fd5b818501915085601f83011261156057600080fd5b81358181111561156f57600080fd5b8660208260051b850101111561158457600080fd5b60209290920196919550909350505050565b600080604083850312156115a957600080fd5b50508035926020909101359150565b6020808252825182820181905260009190848201906040850190845b818110156115f95783516001600160a01b0316835292840192918401916001016115d4565b50909695505050505050565b60006020828403121561161757600080fd5b5035919050565b60006020828403121561163057600080fd5b5051919050565b634e487b7160e01b600052601160045260246000fd5b8082028115828204841417610eb757610eb7611637565b60008261168157634e487b7160e01b600052601260045260246000fd5b500490565b60006020828403121561169857600080fd5b815180151581146114e757600080fd5b6000600182016116ba576116ba611637565b5060010190565b634e487b7160e01b600052603260045260246000fd5b80820180821115610eb757610eb7611637565b81810381811115610eb757610eb7611637565b634e487b7160e01b600052604160045260246000fdfea264697066735822122050aee4c0ecb6a94c4eb4a36ea9286c647cd6aa761d0c3f87bcb4f6bffce4ca6a64736f6c63430008140033",
          "opcodes": "PUSH1 0xC0 PUSH1 0x40 MSTORE PUSH7 0x38D7EA4C68000 PUSH1 0x7 SSTORE PUSH2 0xE10 PUSH1 0x8 SSTORE CALLVALUE DUP1 ISZERO PUSH3 0x22 JUMPI PUSH1 0x0 DUP1 REVERT JUMPDEST POP PUSH1 0x40 MLOAD PUSH3 0x18E1 CODESIZE SUB DUP1 PUSH3 0x18E1 DUP4 CODECOPY DUP2 ADD PUSH1 0x40 DUP2 SWAP1 MSTORE PUSH3 0x45 SWAP2 PUSH3 0x11E JUMP JUMPDEST PUSH1 0x1 PUSH1 0x0 SSTORE CALLER DUP1 PUSH3 0x71 JUMPI PUSH1 0x40 MLOAD PUSH4 0x1E4FBDF7 PUSH1 0xE0 SHL DUP2 MSTORE PUSH1 0x0 PUSH1 0x4 DUP3 ADD MSTORE PUSH1 0x24 ADD PUSH1 0x40 MLOAD DUP1 SWAP2 SUB SWAP1 REVERT JUMPDEST PUSH3 0x7C DUP2 PUSH3 0xAF JUMP JUMPDEST POP PUSH1 0x1 PUSH1 0x1 PUSH1 0xA0 SHL SUB SWAP2 DUP3 AND PUSH1 0x80 MSTORE AND PUSH1 0xA0 MSTORE CALLER PUSH1 0x0 SWAP1 DUP2 MSTORE PUSH1 0x4 PUSH1 0x20 MSTORE PUSH1 0x40 SWAP1 KECCAK256 DUP1 SLOAD PUSH1 0xFF NOT AND PUSH1 0x1 OR SWAP1 SSTORE PUSH3 0x156 JUMP JUMPDEST PUSH1 0x1 DUP1 SLOAD PUSH1 0x1 PUSH1 0x1 PUSH1 0xA0 SHL SUB DUP4 DUP2 AND PUSH1 0x1 PUSH1 0x1 PUSH1 0xA0 SHL SUB NOT DUP4 AND DUP2 OR SWAP1 SWAP4 SSTORE PUSH1 0x40 MLOAD SWAP2 AND SWAP2 SWAP1 DUP3 SWAP1 PUSH32 0x8BE0079C531659141344CD1FD0A4F28419497F9722A3DAAFE3B4186F6B6457E0 SWAP1 PUSH1 0x0 SWAP1 LOG3 POP POP JUMP JUMPDEST DUP1 MLOAD PUSH1 0x1 PUSH1 0x1 PUSH1 0xA0 SHL SUB DUP2 AND DUP2 EQ PUSH3 0x119 JUMPI PUSH1 0x0 DUP1 REVERT JUMPDEST SWAP2 SWAP1 POP JUMP JUMPDEST PUSH1 0x0 DUP1 PUSH1 0x40 DUP4 DUP6 SUB SLT ISZERO PUSH3 0x132 JUMPI PUSH1 0x0 DUP1 REVERT JUMPDEST PUSH3 0x13D DUP4 PUSH3 0x101 JUMP JUMPDEST SWAP2 POP PUSH3 0x14D PUSH1 0x20 DUP5 ADD PUSH3 0x101 JUMP JUMPDEST SWAP1 POP SWAP3 POP SWAP3 SWAP1 POP JUMP JUMPDEST PUSH1 0x80 MLOAD PUSH1 0xA0 MLOAD PUSH2 0x1749 PUSH3 0x198 PUSH1 0x0 CODECOPY PUSH1 0x0 DUP2 DUP2 PUSH2 0x1B3 ADD MSTORE DUP2 DUP2 PUSH2 0x5A0 ADD MSTORE DUP2 DUP2 PUSH2 0xD03 ADD MSTORE PUSH2 0x10A9 ADD MSTORE PUSH1 0x0 DUP2 DUP2 PUSH2 0x3EE ADD MSTORE PUSH2 0x7E5 ADD MSTORE PUSH2 0x1749 PUSH1 0x0 RETURN INVALID PUSH1 0x80 PUSH1 0x40 MSTORE CALLVALUE DUP1 ISZERO PUSH2 0x10 JUMPI PUSH1 0x0 DUP1 REVERT JUMPDEST POP PUSH1 0x4 CALLDATASIZE LT PUSH2 0x18E JUMPI PUSH1 0x0 CALLDATALOAD PUSH1 0xE0 SHR DUP1 PUSH4 0x8FA3C532 GT PUSH2 0xDE JUMPI DUP1 PUSH4 0xB5D4A126 GT PUSH2 0x97 JUMPI DUP1 PUSH4 0xE73A4E88 GT PUSH2 0x71 JUMPI DUP1 PUSH4 0xE73A4E88 EQ PUSH2 0x3D6 JUMPI DUP1 PUSH4 0xE9CBD822 EQ PUSH2 0x3E9 JUMPI DUP1 PUSH4 0xF2FDE38B EQ PUSH2 0x410 JUMPI DUP1 PUSH4 0xFA550EBA EQ PUSH2 0x423 JUMPI PUSH1 0x0 DUP1 REVERT JUMPDEST DUP1 PUSH4 0xB5D4A126 EQ PUSH2 0x3B2 JUMPI DUP1 PUSH4 0xE1F1C4A7 EQ PUSH2 0x3C5 JUMPI DUP1 PUSH4 0xE68F2195 EQ PUSH2 0x3CD JUMPI PUSH1 0x0 DUP1 REVERT JUMPDEST DUP1 PUSH4 0x8FA3C532 EQ PUSH2 0x29F JUMPI DUP1 PUSH4 0x90229AF7 EQ PUSH2 0x2B2 JUMPI DUP1 PUSH4 0x90A8AE9B EQ PUSH2 0x2F6 JUMPI DUP1 PUSH4 0x9A398580 EQ PUSH2 0x2FE JUMPI DUP1 PUSH4 0xA622EE7C EQ PUSH2 0x31E JUMPI DUP1 PUSH4 0xAB19582D EQ PUSH2 0x3A9 JUMPI PUSH1 0x0 DUP1 REVERT JUMPDEST DUP1 PUSH4 0x5696B189 GT PUSH2 0x14B JUMPI DUP1 PUSH4 0x715018A6 GT PUSH2 0x125 JUMPI DUP1 PUSH4 0x715018A6 EQ PUSH2 0x274 JUMPI DUP1 PUSH4 0x8C37F11D EQ PUSH2 0x27C JUMPI DUP1 PUSH4 0x8D654023 EQ PUSH2 0x285 JUMPI DUP1 PUSH4 0x8DA5CB5B EQ PUSH2 0x28E JUMPI PUSH1 0x0 DUP1 REVERT JUMPDEST DUP1 PUSH4 0x5696B189 EQ PUSH2 0x25B JUMPI DUP1 PUSH4 0x57ED6C17 EQ PUSH2 0x263 JUMPI DUP1 PUSH4 0x59C153BE EQ PUSH2 0x26C JUMPI PUSH1 0x0 DUP1 REVERT JUMPDEST DUP1 PUSH4 0xB4501FD EQ PUSH2 0x193 JUMPI DUP1 PUSH4 0x2630C12F EQ PUSH2 0x1AE JUMPI DUP1 PUSH4 0x3BBD64BC EQ PUSH2 0x1ED JUMPI DUP1 PUSH4 0x4032B72B EQ PUSH2 0x220 JUMPI DUP1 PUSH4 0x44DEF843 EQ PUSH2 0x235 JUMPI DUP1 PUSH4 0x536DB2E6 EQ PUSH2 0x248 JUMPI JUMPDEST PUSH1 0x0 DUP1 REVERT JUMPDEST PUSH2 0x19B PUSH1 0x14 DUP2 JUMP JUMPDEST PUSH1 0x40 MLOAD SWAP1 DUP2 MSTORE PUSH1 0x20 ADD JUMPDEST PUSH1 0x40 MLOAD DUP1 SWAP2 SUB SWAP1 RETURN JUMPDEST PUSH2 0x1D5 PUSH32 0x0 DUP2 JUMP JUMPDEST PUSH1 0x40 MLOAD PUSH1 0x1 PUSH1 0x1 PUSH1 0xA0 SHL SUB SWAP1 SWAP2 AND DUP2 MSTORE PUSH1 0x20 ADD PUSH2 0x1A5 JUMP JUMPDEST PUSH2 0x210 PUSH2 0x1FB CALLDATASIZE PUSH1 0x4 PUSH2 0x14CC JUMP JUMPDEST PUSH1 0x4 PUSH1 0x20 MSTORE PUSH1 0x0 SWAP1 DUP2 MSTORE PUSH1 0x40 SWAP1 KECCAK256 SLOAD PUSH1 0xFF AND DUP2 JUMP JUMPDEST PUSH1 0x40 MLOAD SWAP1 ISZERO ISZERO DUP2 MSTORE PUSH1 0x20 ADD PUSH2 0x1A5 JUMP JUMPDEST PUSH2 0x233 PUSH2 0x22E CALLDATASIZE PUSH1 0x4 PUSH2 0x14CC JUMP JUMPDEST PUSH2 0x446 JUMP JUMPDEST STOP JUMPDEST PUSH2 0x233 PUSH2 0x243 CALLDATASIZE PUSH1 0x4 PUSH2 0x14EE JUMP JUMPDEST PUSH2 0x472 JUMP JUMPDEST PUSH2 0x233 PUSH2 0x256 CALLDATASIZE PUSH1 0x4 PUSH2 0x14CC JUMP JUMPDEST PUSH2 0x8E5 JUMP JUMPDEST PUSH2 0x19B PUSH1 0x46 DUP2 JUMP JUMPDEST PUSH2 0x19B PUSH1 0xA SLOAD DUP2 JUMP JUMPDEST PUSH2 0x233 PUSH2 0x911 JUMP JUMPDEST PUSH2 0x233 PUSH2 0xA49 JUMP JUMPDEST PUSH2 0x19B PUSH1 0x9 SLOAD DUP2 JUMP JUMPDEST PUSH2 0x19B PUSH1 0x6 SLOAD DUP2 JUMP JUMPDEST PUSH1 0x1 SLOAD PUSH1 0x1 PUSH1 0x1 PUSH1 0xA0 SHL SUB AND PUSH2 0x1D5 JUMP JUMPDEST PUSH2 0x233 PUSH2 0x2AD CALLDATASIZE PUSH1 0x4 PUSH2 0x1521 JUMP JUMPDEST PUSH2 0xA5B JUMP JUMPDEST PUSH2 0x2C5 PUSH2 0x2C0 CALLDATASIZE PUSH1 0x4 PUSH2 0x14CC JUMP JUMPDEST PUSH2 0xBB9 JUMP JUMPDEST PUSH1 0x40 DUP1 MLOAD SWAP7 DUP8 MSTORE PUSH1 0x20 DUP8 ADD SWAP6 SWAP1 SWAP6 MSTORE SWAP4 DUP6 ADD SWAP3 SWAP1 SWAP3 MSTORE PUSH1 0x60 DUP5 ADD MSTORE ISZERO ISZERO PUSH1 0x80 DUP4 ADD MSTORE ISZERO ISZERO PUSH1 0xA0 DUP3 ADD MSTORE PUSH1 0xC0 ADD PUSH2 0x1A5 JUMP JUMPDEST PUSH2 0x19B PUSH1 0x55 DUP2 JUMP JUMPDEST PUSH2 0x311 PUSH2 0x30C CALLDATASIZE PUSH1 0x4 PUSH2 0x1596 JUMP JUMPDEST PUSH2 0xDBE JUMP JUMPDEST PUSH1 0x40 MLOAD PUSH2 0x1A5 SWAP2 SWAP1 PUSH2 0x15B8 JUMP JUMPDEST PUSH2 0x371 PUSH2 0x32C CALLDATASIZE PUSH1 0x4 PUSH2 0x14CC JUMP JUMPDEST PUSH1 0x2 PUSH1 0x20 DUP2 SWAP1 MSTORE PUSH1 0x0 SWAP2 DUP3 MSTORE PUSH1 0x40 SWAP1 SWAP2 KECCAK256 DUP1 SLOAD PUSH1 0x1 DUP3 ADD SLOAD SWAP3 DUP3 ADD SLOAD PUSH1 0x3 DUP4 ADD SLOAD PUSH1 0x4 SWAP1 SWAP4 ADD SLOAD SWAP2 SWAP4 SWAP3 SWAP1 SWAP2 PUSH1 0x1 PUSH1 0x1 PUSH1 0xA0 SHL SUB DUP3 AND SWAP2 PUSH1 0x1 PUSH1 0xA0 SHL SWAP1 DIV PUSH1 0xFF AND SWAP1 DUP7 JUMP JUMPDEST PUSH1 0x40 DUP1 MLOAD SWAP7 DUP8 MSTORE PUSH1 0x20 DUP8 ADD SWAP6 SWAP1 SWAP6 MSTORE SWAP4 DUP6 ADD SWAP3 SWAP1 SWAP3 MSTORE PUSH1 0x1 PUSH1 0x1 PUSH1 0xA0 SHL SUB AND PUSH1 0x60 DUP5 ADD MSTORE ISZERO ISZERO PUSH1 0x80 DUP4 ADD MSTORE PUSH1 0xA0 DUP3 ADD MSTORE PUSH1 0xC0 ADD PUSH2 0x1A5 JUMP JUMPDEST PUSH2 0x19B PUSH1 0x8 SLOAD DUP2 JUMP JUMPDEST PUSH2 0x1D5 PUSH2 0x3C0 CALLDATASIZE PUSH1 0x4 PUSH2 0x1605 JUMP JUMPDEST PUSH2 0xEBD JUMP JUMPDEST PUSH2 0x19B PUSH1 0x64 DUP2 JUMP JUMPDEST PUSH2 0x19B PUSH1 0x7 SLOAD DUP2 JUMP JUMPDEST PUSH2 0x233 PUSH2 0x3E4 CALLDATASIZE PUSH1 0x4 PUSH2 0x14CC JUMP JUMPDEST PUSH2 0xEE7 JUMP JUMPDEST PUSH2 0x1D5 PUSH32 0x0 DUP2 JUMP JUMPDEST PUSH2 0x233 PUSH2 0x41E CALLDATASIZE PUSH1 0x4 PUSH2 0x14CC JUMP JUMPDEST PUSH2 0x13CC JUMP JUMPDEST PUSH2 0x210 PUSH2 0x431 CALLDATASIZE PUSH1 0x4 PUSH2 0x14CC JUMP JUMPDEST PUSH1 0x3 PUSH1 0x20 MSTORE PUSH1 0x0 SWAP1 DUP2 MSTORE PUSH1 0x40 SWAP1 KECCAK256 SLOAD PUSH1 0xFF AND DUP2 JUMP JUMPDEST PUSH2 0x44E PUSH2 0x1407 JUMP JUMPDEST PUSH1 0x1 PUSH1 0x1 PUSH1 0xA0 SHL SUB AND PUSH1 0x0 SWAP1 DUP2 MSTORE PUSH1 0x4 PUSH1 0x20 MSTORE PUSH1 0x40 SWAP1 KECCAK256 DUP1 SLOAD PUSH1 0xFF NOT AND PUSH1 0x1 OR SWAP1 SSTORE JUMP JUMPDEST PUSH2 0x47A PUSH2 0x1434 JUMP JUMPDEST PUSH1 0x1 PUSH1 0x1 PUSH1 0xA0 SHL SUB DUP4 AND PUSH1 0x0 SWAP1 DUP2 MSTORE PUSH1 0x3 PUSH1 0x20 MSTORE PUSH1 0x40 SWAP1 KECCAK256 SLOAD PUSH1 0xFF AND PUSH2 0x4E0 JUMPI PUSH1 0x40 MLOAD PUSH3 0x461BCD PUSH1 0xE5 SHL DUP2 MSTORE PUSH1 0x20 PUSH1 0x4 DUP3 ADD MSTORE PUSH1 0x16 PUSH1 0x24 DUP3 ADD MSTORE PUSH22 0x155B9CDD5C1C1BDC9D19590818DBDB1B185D195C985B PUSH1 0x52 SHL PUSH1 0x44 DUP3 ADD MSTORE PUSH1 0x64 ADD JUMPDEST PUSH1 0x40 MLOAD DUP1 SWAP2 SUB SWAP1 REVERT JUMPDEST CALLER PUSH1 0x0 SWAP1 DUP2 MSTORE PUSH1 0x2 PUSH1 0x20 MSTORE PUSH1 0x40 SWAP1 KECCAK256 PUSH1 0x3 ADD SLOAD PUSH1 0x1 PUSH1 0xA0 SHL SWAP1 DIV PUSH1 0xFF AND ISZERO PUSH2 0x539 JUMPI PUSH1 0x40 MLOAD PUSH3 0x461BCD PUSH1 0xE5 SHL DUP2 MSTORE PUSH1 0x20 PUSH1 0x4 DUP3 ADD MSTORE PUSH1 0xC PUSH1 0x24 DUP3 ADD MSTORE PUSH12 0x5661756C7420657869737473 PUSH1 0xA0 SHL PUSH1 0x44 DUP3 ADD MSTORE PUSH1 0x64 ADD PUSH2 0x4D7 JUMP JUMPDEST PUSH1 0x0 DUP2 GT PUSH2 0x577 JUMPI PUSH1 0x40 MLOAD PUSH3 0x461BCD PUSH1 0xE5 SHL DUP2 MSTORE PUSH1 0x20 PUSH1 0x4 DUP3 ADD MSTORE PUSH1 0xB PUSH1 0x24 DUP3 ADD MSTORE PUSH11 0x4D75737420626F72726F77 PUSH1 0xA8 SHL PUSH1 0x44 DUP3 ADD MSTORE PUSH1 0x64 ADD PUSH2 0x4D7 JUMP JUMPDEST PUSH1 0x40 MLOAD PUSH4 0xBF33C3F PUSH1 0xE2 SHL DUP2 MSTORE PUSH1 0x1 PUSH1 0x1 PUSH1 0xA0 SHL SUB DUP5 DUP2 AND PUSH1 0x4 DUP4 ADD MSTORE PUSH1 0x24 DUP3 ADD DUP5 SWAP1 MSTORE PUSH1 0x0 SWAP2 PUSH32 0x0 SWAP1 SWAP2 AND SWAP1 PUSH4 0x2FCCF0FC SWAP1 PUSH1 0x44 ADD PUSH1 0x20 PUSH1 0x40 MLOAD DUP1 DUP4 SUB DUP2 DUP7 GAS STATICCALL ISZERO DUP1 ISZERO PUSH2 0x5E9 JUMPI RETURNDATASIZE PUSH1 0x0 DUP1 RETURNDATACOPY RETURNDATASIZE PUSH1 0x0 REVERT JUMPDEST POP POP POP POP PUSH1 0x40 MLOAD RETURNDATASIZE PUSH1 0x1F NOT PUSH1 0x1F DUP3 ADD AND DUP3 ADD DUP1 PUSH1 0x40 MSTORE POP DUP2 ADD SWAP1 PUSH2 0x60D SWAP2 SWAP1 PUSH2 0x161E JUMP JUMPDEST SWAP1 POP PUSH1 0x0 PUSH1 0x64 PUSH2 0x61E PUSH1 0x46 DUP5 PUSH2 0x164D JUMP JUMPDEST PUSH2 0x628 SWAP2 SWAP1 PUSH2 0x1664 JUMP JUMPDEST SWAP1 POP DUP1 DUP4 GT ISZERO PUSH2 0x66E JUMPI PUSH1 0x40 MLOAD PUSH3 0x461BCD PUSH1 0xE5 SHL DUP2 MSTORE PUSH1 0x20 PUSH1 0x4 DUP3 ADD MSTORE PUSH1 0x11 PUSH1 0x24 DUP3 ADD MSTORE PUSH17 0x115E18D959591CC8131515881B1A5B5A5D PUSH1 0x7A SHL PUSH1 0x44 DUP3 ADD MSTORE PUSH1 0x64 ADD PUSH2 0x4D7 JUMP JUMPDEST PUSH1 0x40 MLOAD PUSH4 0x23B872DD PUSH1 0xE0 SHL DUP2 MSTORE CALLER PUSH1 0x4 DUP3 ADD MSTORE ADDRESS PUSH1 0x24 DUP3 ADD MSTORE PUSH1 0x44 DUP2 ADD DUP6 SWAP1 MSTORE PUSH1 0x1 PUSH1 0x1 PUSH1 0xA0 SHL SUB DUP7 AND SWAP1 PUSH4 0x23B872DD SWAP1 PUSH1 0x64 ADD PUSH1 0x20 PUSH1 0x40 MLOAD DUP1 DUP4 SUB DUP2 PUSH1 0x0 DUP8 GAS CALL ISZERO DUP1 ISZERO PUSH2 0x6C1 JUMPI RETURNDATASIZE PUSH1 0x0 DUP1 RETURNDATACOPY RETURNDATASIZE PUSH1 0x0 REVERT JUMPDEST POP POP POP POP PUSH1 0x40 MLOAD RETURNDATASIZE PUSH1 0x1F NOT PUSH1 0x1F DUP3 ADD AND DUP3 ADD DUP1 PUSH1 0x40 MSTORE POP DUP2 ADD SWAP1 PUSH2 0x6E5 SWAP2 SWAP1 PUSH2 0x1686 JUMP JUMPDEST POP PUSH1 0x40 DUP1 MLOAD PUSH1 0xC0 DUP2 ADD DUP3 MSTORE DUP6 DUP2 MSTORE PUSH1 0x20 DUP1 DUP3 ADD DUP7 DUP2 MSTORE TIMESTAMP DUP4 DUP6 ADD DUP2 DUP2 MSTORE PUSH1 0x1 PUSH1 0x1 PUSH1 0xA0 SHL SUB DUP1 DUP13 AND PUSH1 0x60 DUP8 ADD SWAP1 DUP2 MSTORE PUSH1 0x1 PUSH1 0x80 DUP9 ADD DUP2 DUP2 MSTORE PUSH1 0xA0 DUP10 ADD SWAP6 DUP7 MSTORE CALLER PUSH1 0x0 DUP2 DUP2 MSTORE PUSH1 0x2 SWAP10 DUP11 SWAP1 MSTORE SWAP11 DUP12 KECCAK256 SWAP10 MLOAD DUP11 SSTORE SWAP7 MLOAD DUP10 DUP4 ADD SSTORE SWAP4 MLOAD SWAP7 DUP9 ADD SWAP7 SWAP1 SWAP7 SSTORE MLOAD PUSH1 0x3 DUP8 ADD DUP1 SLOAD SWAP4 MLOAD ISZERO ISZERO PUSH1 0x1 PUSH1 0xA0 SHL MUL PUSH1 0x1 PUSH1 0x1 PUSH1 0xA8 SHL SUB NOT SWAP1 SWAP5 AND SWAP2 SWAP1 SWAP3 AND OR SWAP2 SWAP1 SWAP2 OR SWAP1 SSTORE MLOAD PUSH1 0x4 SWAP1 SWAP4 ADD SWAP3 SWAP1 SWAP3 SSTORE PUSH1 0x5 DUP1 SLOAD SWAP2 DUP3 ADD DUP2 SSTORE DUP4 MSTORE PUSH32 0x36B6384B5ECA791C62761152D0C79BB0604C104A5FB6F4EB0703F3154BB3DB0 ADD DUP1 SLOAD PUSH1 0x1 PUSH1 0x1 PUSH1 0xA0 SHL SUB NOT AND SWAP1 SWAP2 OR SWAP1 SSTORE PUSH1 0x6 DUP1 SLOAD SWAP2 PUSH2 0x7C4 DUP4 PUSH2 0x16A8 JUMP JUMPDEST SWAP1 SWAP2 SSTORE POP POP PUSH1 0x40 MLOAD PUSH4 0xA9059CBB PUSH1 0xE0 SHL DUP2 MSTORE CALLER PUSH1 0x4 DUP3 ADD MSTORE PUSH1 0x24 DUP2 ADD DUP5 SWAP1 MSTORE PUSH32 0x0 PUSH1 0x1 PUSH1 0x1 PUSH1 0xA0 SHL SUB AND SWAP1 PUSH4 0xA9059CBB SWAP1 PUSH1 0x44 ADD PUSH1 0x20 PUSH1 0x40 MLOAD DUP1 DUP4 SUB DUP2 PUSH1 0x0 DUP8 GAS CALL ISZERO DUP1 ISZERO PUSH2 0x836 JUMPI RETURNDATASIZE PUSH1 0x0 DUP1 RETURNDATACOPY RETURNDATASIZE PUSH1 0x0 REVERT JUMPDEST POP POP POP POP PUSH1 0x40 MLOAD RETURNDATASIZE PUSH1 0x1F NOT PUSH1 0x1F DUP3 ADD AND DUP3 ADD DUP1 PUSH1 0x40 MSTORE POP DUP2 ADD SWAP1 PUSH2 0x85A SWAP2 SWAP1 PUSH2 0x1686 JUMP JUMPDEST POP PUSH1 0x40 DUP1 MLOAD PUSH1 0x1 PUSH1 0x1 PUSH1 0xA0 SHL SUB DUP8 AND DUP2 MSTORE PUSH1 0x20 DUP2 ADD DUP7 SWAP1 MSTORE CALLER SWAP2 PUSH32 0xB045AF6AFF86DD2CDA5342FD0329A354DC66759FF1EDA00D7ECF13A76C7FB3B SWAP2 ADD PUSH1 0x40 MLOAD DUP1 SWAP2 SUB SWAP1 LOG2 PUSH1 0x40 MLOAD DUP4 DUP2 MSTORE CALLER SWAP1 PUSH32 0x7A954F5289898AC88C79469BE62462B769F41C4F171A4F4591EF5A62B6FBF74F SWAP1 PUSH1 0x20 ADD PUSH1 0x40 MLOAD DUP1 SWAP2 SUB SWAP1 LOG2 POP POP PUSH2 0x8E0 PUSH1 0x1 PUSH1 0x0 SSTORE JUMP JUMPDEST POP POP POP JUMP JUMPDEST PUSH2 0x8ED PUSH2 0x1407 JUMP JUMPDEST PUSH1 0x1 PUSH1 0x1 PUSH1 0xA0 SHL SUB AND PUSH1 0x0 SWAP1 DUP2 MSTORE PUSH1 0x3 PUSH1 0x20 MSTORE PUSH1 0x40 SWAP1 KECCAK256 DUP1 SLOAD PUSH1 0xFF NOT AND PUSH1 0x1 OR SWAP1 SSTORE JUMP JUMPDEST PUSH2 0x919 PUSH2 0x1434 JUMP JUMPDEST CALLER PUSH1 0x0 SWAP1 DUP2 MSTORE PUSH1 0x2 PUSH1 0x20 MSTORE PUSH1 0x40 SWAP1 KECCAK256 PUSH1 0x3 DUP2 ADD SLOAD PUSH1 0x1 PUSH1 0xA0 SHL SWAP1 DIV PUSH1 0xFF AND DUP1 ISZERO PUSH2 0x945 JUMPI POP PUSH1 0x1 DUP2 ADD SLOAD ISZERO JUMPDEST PUSH2 0x983 JUMPI PUSH1 0x40 MLOAD PUSH3 0x461BCD PUSH1 0xE5 SHL DUP2 MSTORE PUSH1 0x20 PUSH1 0x4 DUP3 ADD MSTORE PUSH1 0xF PUSH1 0x24 DUP3 ADD MSTORE PUSH15 0x43616E6E6F74207769746864726177 PUSH1 0x88 SHL PUSH1 0x44 DUP3 ADD MSTORE PUSH1 0x64 ADD PUSH2 0x4D7 JUMP JUMPDEST DUP1 SLOAD PUSH1 0x3 DUP3 ADD DUP1 SLOAD PUSH1 0xFF PUSH1 0xA0 SHL NOT DUP2 AND SWAP1 SWAP2 SSTORE PUSH1 0x0 DUP4 SSTORE PUSH1 0x40 MLOAD PUSH4 0xA9059CBB PUSH1 0xE0 SHL DUP2 MSTORE CALLER PUSH1 0x4 DUP3 ADD MSTORE PUSH1 0x24 DUP2 ADD DUP4 SWAP1 MSTORE PUSH1 0x1 PUSH1 0x1 PUSH1 0xA0 SHL SUB SWAP1 SWAP2 AND SWAP1 DUP2 SWAP1 PUSH4 0xA9059CBB SWAP1 PUSH1 0x44 ADD PUSH1 0x20 PUSH1 0x40 MLOAD DUP1 DUP4 SUB DUP2 PUSH1 0x0 DUP8 GAS CALL ISZERO DUP1 ISZERO PUSH2 0x9EA JUMPI RETURNDATASIZE PUSH1 0x0 DUP1 RETURNDATACOPY RETURNDATASIZE PUSH1 0x0 REVERT JUMPDEST POP POP POP POP PUSH1 0x40 MLOAD RETURNDATASIZE PUSH1 0x1F NOT PUSH1 0x1F DUP3 ADD AND DUP3 ADD DUP1 PUSH1 0x40 MSTORE POP DUP2 ADD SWAP1 PUSH2 0xA0E SWAP2 SWAP1 PUSH2 0x1686 JUMP JUMPDEST POP PUSH1 0x40 MLOAD CALLER SWAP1 PUSH32 0xE878654B01A78B867C21C011576AD0CE2B8EDE58EC2B1F232EC8C3D0ACCC662C SWAP1 PUSH1 0x0 SWAP1 LOG2 POP POP POP PUSH2 0xA47 PUSH1 0x1 PUSH1 0x0 SSTORE JUMP JUMPDEST JUMP JUMPDEST PUSH2 0xA51 PUSH2 0x1407 JUMP JUMPDEST PUSH2 0xA47 PUSH1 0x0 PUSH2 0x145E JUMP JUMPDEST PUSH2 0xA63 PUSH2 0x1434 JUMP JUMPDEST CALLER PUSH1 0x0 SWAP1 DUP2 MSTORE PUSH1 0x4 PUSH1 0x20 MSTORE PUSH1 0x40 SWAP1 KECCAK256 SLOAD PUSH1 0xFF AND DUP1 PUSH2 0xA8B JUMPI POP PUSH1 0x1 SLOAD PUSH1 0x1 PUSH1 0x1 PUSH1 0xA0 SHL SUB AND CALLER EQ JUMPDEST PUSH2 0xAC4 JUMPI PUSH1 0x40 MLOAD PUSH3 0x461BCD PUSH1 0xE5 SHL DUP2 MSTORE PUSH1 0x20 PUSH1 0x4 DUP3 ADD MSTORE PUSH1 0xA PUSH1 0x24 DUP3 ADD MSTORE PUSH10 0x2737BA1035B2B2B832B9 PUSH1 0xB1 SHL PUSH1 0x44 DUP3 ADD MSTORE PUSH1 0x64 ADD PUSH2 0x4D7 JUMP JUMPDEST PUSH1 0x0 DUP1 JUMPDEST DUP3 DUP2 LT ISZERO PUSH2 0xB74 JUMPI ADDRESS PUSH4 0xE73A4E88 DUP6 DUP6 DUP5 DUP2 DUP2 LT PUSH2 0xAE8 JUMPI PUSH2 0xAE8 PUSH2 0x16C1 JUMP JUMPDEST SWAP1 POP PUSH1 0x20 MUL ADD PUSH1 0x20 DUP2 ADD SWAP1 PUSH2 0xAFD SWAP2 SWAP1 PUSH2 0x14CC JUMP JUMPDEST PUSH1 0x40 MLOAD PUSH1 0x1 PUSH1 0x1 PUSH1 0xE0 SHL SUB NOT PUSH1 0xE0 DUP5 SWAP1 SHL AND DUP2 MSTORE PUSH1 0x1 PUSH1 0x1 PUSH1 0xA0 SHL SUB SWAP1 SWAP2 AND PUSH1 0x4 DUP3 ADD MSTORE PUSH1 0x24 ADD PUSH1 0x0 PUSH1 0x40 MLOAD DUP1 DUP4 SUB DUP2 PUSH1 0x0 DUP8 DUP1 EXTCODESIZE ISZERO DUP1 ISZERO PUSH2 0xB3E JUMPI PUSH1 0x0 DUP1 REVERT JUMPDEST POP GAS CALL SWAP3 POP POP POP DUP1 ISZERO PUSH2 0xB4F JUMPI POP PUSH1 0x1 JUMPDEST ISZERO PUSH2 0xB62 JUMPI DUP2 PUSH2 0xB5E DUP2 PUSH2 0x16A8 JUMP JUMPDEST SWAP3 POP POP JUMPDEST DUP1 PUSH2 0xB6C DUP2 PUSH2 0x16A8 JUMP JUMPDEST SWAP2 POP POP PUSH2 0xAC8 JUMP JUMPDEST POP PUSH1 0x40 MLOAD DUP2 DUP2 MSTORE CALLER SWAP1 PUSH32 0x5A34CE705ECFDE0B8BE1B9C95BFB248047B914B480A5A7A0214D68D86062E7B1 SWAP1 PUSH1 0x20 ADD PUSH1 0x40 MLOAD DUP1 SWAP2 SUB SWAP1 LOG2 POP PUSH2 0xBB5 PUSH1 0x1 PUSH1 0x0 SSTORE JUMP JUMPDEST POP POP JUMP JUMPDEST PUSH1 0x1 PUSH1 0x1 PUSH1 0xA0 SHL SUB DUP2 DUP2 AND PUSH1 0x0 SWAP1 DUP2 MSTORE PUSH1 0x2 PUSH1 0x20 DUP2 DUP2 MSTORE PUSH1 0x40 DUP1 DUP5 KECCAK256 DUP2 MLOAD PUSH1 0xC0 DUP2 ADD DUP4 MSTORE DUP2 SLOAD DUP2 MSTORE PUSH1 0x1 DUP3 ADD SLOAD SWAP4 DUP2 ADD SWAP4 SWAP1 SWAP4 MSTORE SWAP3 DUP4 ADD SLOAD SWAP1 DUP3 ADD MSTORE PUSH1 0x3 DUP3 ADD SLOAD SWAP4 DUP5 AND PUSH1 0x60 DUP3 ADD MSTORE PUSH1 0x1 PUSH1 0xA0 SHL SWAP1 SWAP4 DIV PUSH1 0xFF AND ISZERO ISZERO PUSH1 0x80 DUP5 ADD DUP2 SWAP1 MSTORE PUSH1 0x4 SWAP1 SWAP2 ADD SLOAD PUSH1 0xA0 DUP5 ADD MSTORE SWAP1 SWAP2 DUP3 SWAP2 DUP3 SWAP2 DUP3 SWAP2 DUP3 SWAP2 DUP3 SWAP2 PUSH2 0xC4C JUMPI PUSH1 0x0 DUP1 PUSH1 0x0 DUP1 PUSH1 0x0 DUP1 SWAP7 POP SWAP7 POP SWAP7 POP SWAP7 POP SWAP7 POP SWAP7 POP POP PUSH2 0xDB5 JUMP JUMPDEST DUP1 MLOAD PUSH1 0x20 DUP3 ADD MLOAD PUSH1 0x60 DUP4 ADD MLOAD PUSH1 0x40 MLOAD PUSH4 0x537BB137 PUSH1 0xE0 SHL DUP2 MSTORE PUSH1 0x1 PUSH1 0x1 PUSH1 0xA0 SHL SUB DUP13 DUP2 AND PUSH1 0x4 DUP4 ADD MSTORE SWAP4 SWAP11 POP SWAP2 SWAP9 POP SWAP2 SWAP1 SWAP2 AND SWAP1 PUSH4 0x537BB137 SWAP1 PUSH1 0x24 ADD PUSH1 0x20 PUSH1 0x40 MLOAD DUP1 DUP4 SUB DUP2 DUP7 GAS STATICCALL ISZERO DUP1 ISZERO PUSH2 0xCA6 JUMPI RETURNDATASIZE PUSH1 0x0 DUP1 RETURNDATACOPY RETURNDATASIZE PUSH1 0x0 REVERT JUMPDEST POP POP POP POP PUSH1 0x40 MLOAD RETURNDATASIZE PUSH1 0x1F NOT PUSH1 0x1F DUP3 ADD AND DUP3 ADD DUP1 PUSH1 0x40 MSTORE POP DUP2 ADD SWAP1 PUSH2 0xCCA SWAP2 SWAP1 PUSH2 0x161E JUMP JUMPDEST SWAP5 POP DUP6 ISZERO PUSH2 0xD8A JUMPI PUSH1 0x60 DUP2 ADD MLOAD DUP2 MLOAD PUSH1 0x40 MLOAD PUSH4 0xBF33C3F PUSH1 0xE2 SHL DUP2 MSTORE PUSH1 0x1 PUSH1 0x1 PUSH1 0xA0 SHL SUB SWAP3 DUP4 AND PUSH1 0x4 DUP3 ADD MSTORE PUSH1 0x24 DUP2 ADD SWAP2 SWAP1 SWAP2 MSTORE PUSH1 0x0 SWAP2 PUSH32 0x0 AND SWAP1 PUSH4 0x2FCCF0FC SWAP1 PUSH1 0x44 ADD PUSH1 0x20 PUSH1 0x40 MLOAD DUP1 DUP4 SUB DUP2 DUP7 GAS STATICCALL ISZERO DUP1 ISZERO PUSH2 0xD4A JUMPI RETURNDATASIZE PUSH1 0x0 DUP1 RETURNDATACOPY RETURNDATASIZE PUSH1 0x0 REVERT JUMPDEST POP POP POP POP PUSH1 0x40 MLOAD RETURNDATASIZE PUSH1 0x1F NOT PUSH1 0x1F DUP3 ADD AND DUP3 ADD DUP1 PUSH1 0x40 MSTORE POP DUP2 ADD SWAP1 PUSH2 0xD6E SWAP2 SWAP1 PUSH2 0x161E JUMP JUMPDEST SWAP1 POP DUP7 PUSH2 0xD7C DUP3 PUSH1 0x64 PUSH2 0x164D JUMP JUMPDEST PUSH2 0xD86 SWAP2 SWAP1 PUSH2 0x1664 JUMP JUMPDEST SWAP5 POP POP JUMPDEST PUSH1 0x1 SWAP3 POP PUSH1 0x8 SLOAD DUP2 PUSH1 0xA0 ADD MLOAD PUSH2 0xDA0 SWAP2 SWAP1 PUSH2 0x16D7 JUMP JUMPDEST TIMESTAMP LT ISZERO DUP1 ISZERO PUSH2 0xDB1 JUMPI POP PUSH1 0x7 SLOAD DUP6 LT ISZERO JUMPDEST SWAP2 POP POP JUMPDEST SWAP2 SWAP4 SWAP6 POP SWAP2 SWAP4 SWAP6 JUMP JUMPDEST PUSH1 0x5 SLOAD PUSH1 0x60 SWAP1 PUSH1 0x0 SWAP1 PUSH2 0xDD1 DUP5 DUP7 PUSH2 0x16D7 JUMP JUMPDEST GT PUSH2 0xDE5 JUMPI PUSH2 0xDE0 DUP4 DUP6 PUSH2 0x16D7 JUMP JUMPDEST PUSH2 0xDE9 JUMP JUMPDEST PUSH1 0x5 SLOAD JUMPDEST SWAP1 POP PUSH1 0x0 PUSH2 0xDF7 DUP6 DUP4 PUSH2 0x16EA JUMP JUMPDEST PUSH8 0xFFFFFFFFFFFFFFFF DUP2 GT ISZERO PUSH2 0xE0F JUMPI PUSH2 0xE0F PUSH2 0x16FD JUMP JUMPDEST PUSH1 0x40 MLOAD SWAP1 DUP1 DUP3 MSTORE DUP1 PUSH1 0x20 MUL PUSH1 0x20 ADD DUP3 ADD PUSH1 0x40 MSTORE DUP1 ISZERO PUSH2 0xE38 JUMPI DUP2 PUSH1 0x20 ADD PUSH1 0x20 DUP3 MUL DUP1 CALLDATASIZE DUP4 CALLDATACOPY ADD SWAP1 POP JUMPDEST POP SWAP1 POP DUP5 JUMPDEST DUP3 DUP2 LT ISZERO PUSH2 0xEB2 JUMPI PUSH1 0x5 DUP2 DUP2 SLOAD DUP2 LT PUSH2 0xE58 JUMPI PUSH2 0xE58 PUSH2 0x16C1 JUMP JUMPDEST PUSH1 0x0 SWAP2 DUP3 MSTORE PUSH1 0x20 SWAP1 SWAP2 KECCAK256 ADD SLOAD PUSH1 0x1 PUSH1 0x1 PUSH1 0xA0 SHL SUB AND DUP3 PUSH2 0xE78 DUP9 DUP5 PUSH2 0x16EA JUMP JUMPDEST DUP2 MLOAD DUP2 LT PUSH2 0xE88 JUMPI PUSH2 0xE88 PUSH2 0x16C1 JUMP JUMPDEST PUSH1 0x1 PUSH1 0x1 PUSH1 0xA0 SHL SUB SWAP1 SWAP3 AND PUSH1 0x20 SWAP3 DUP4 MUL SWAP2 SWAP1 SWAP2 ADD SWAP1 SWAP2 ADD MSTORE DUP1 PUSH2 0xEAA DUP2 PUSH2 0x16A8 JUMP JUMPDEST SWAP2 POP POP PUSH2 0xE3D JUMP JUMPDEST POP SWAP2 POP POP JUMPDEST SWAP3 SWAP2 POP POP JUMP JUMPDEST PUSH1 0x5 DUP2 DUP2 SLOAD DUP2 LT PUSH2 0xECD JUMPI PUSH1 0x0 DUP1 REVERT JUMPDEST PUSH1 0x0 SWAP2 DUP3 MSTORE PUSH1 0x20 SWAP1 SWAP2 KECCAK256 ADD SLOAD PUSH1 0x1 PUSH1 0x1 PUSH1 0xA0 SHL SUB AND SWAP1 POP DUP2 JUMP JUMPDEST PUSH2 0xEEF PUSH2 0x1434 JUMP JUMPDEST CALLER PUSH1 0x0 SWAP1 DUP2 MSTORE PUSH1 0x4 PUSH1 0x20 MSTORE PUSH1 0x40 SWAP1 KECCAK256 SLOAD PUSH1 0xFF AND DUP1 PUSH2 0xF17 JUMPI POP PUSH1 0x1 SLOAD PUSH1 0x1 PUSH1 0x1 PUSH1 0xA0 SHL SUB AND CALLER EQ JUMPDEST PUSH2 0xF50 JUMPI PUSH1 0x40 MLOAD PUSH3 0x461BCD PUSH1 0xE5 SHL DUP2 MSTORE PUSH1 0x20 PUSH1 0x4 DUP3 ADD MSTORE PUSH1 0xA PUSH1 0x24 DUP3 ADD MSTORE PUSH10 0x2737BA1035B2B2B832B9 PUSH1 0xB1 SHL PUSH1 0x44 DUP3 ADD MSTORE PUSH1 0x64 ADD PUSH2 0x4D7 JUMP JUMPDEST PUSH1 0x1 PUSH1 0x1 PUSH1 0xA0 SHL SUB DUP2 AND PUSH1 0x0 SWAP1 DUP2 MSTORE PUSH1 0x2 PUSH1 0x20 MSTORE PUSH1 0x40 SWAP1 KECCAK256 PUSH1 0x3 DUP2 ADD SLOAD PUSH1 0x1 PUSH1 0xA0 SHL SWAP1 DIV PUSH1 0xFF AND DUP1 ISZERO PUSH2 0xF87 JUMPI POP PUSH1 0x0 DUP2 PUSH1 0x1 ADD SLOAD GT JUMPDEST PUSH2 0xFC3 JUMPI PUSH1 0x40 MLOAD PUSH3 0x461BCD PUSH1 0xE5 SHL DUP2 MSTORE PUSH1 0x20 PUSH1 0x4 DUP3 ADD MSTORE PUSH1 0xD PUSH1 0x24 DUP3 ADD MSTORE PUSH13 0x125B9D985B1A59081D985D5B1D PUSH1 0x9A SHL PUSH1 0x44 DUP3 ADD MSTORE PUSH1 0x64 ADD PUSH2 0x4D7 JUMP JUMPDEST PUSH1 0x3 DUP2 ADD SLOAD PUSH1 0x40 MLOAD PUSH4 0x537BB137 PUSH1 0xE0 SHL DUP2 MSTORE PUSH1 0x1 PUSH1 0x1 PUSH1 0xA0 SHL SUB DUP5 DUP2 AND PUSH1 0x4 DUP4 ADD MSTORE PUSH1 0x0 SWAP3 AND SWAP1 PUSH4 0x537BB137 SWAP1 PUSH1 0x24 ADD PUSH1 0x20 PUSH1 0x40 MLOAD DUP1 DUP4 SUB DUP2 DUP7 GAS STATICCALL ISZERO DUP1 ISZERO PUSH2 0x1010 JUMPI RETURNDATASIZE PUSH1 0x0 DUP1 RETURNDATACOPY RETURNDATASIZE PUSH1 0x0 REVERT JUMPDEST POP POP POP POP PUSH1 0x40 MLOAD RETURNDATASIZE PUSH1 0x1F NOT PUSH1 0x1F DUP3 ADD AND DUP3 ADD DUP1 PUSH1 0x40 MSTORE POP DUP2 ADD SWAP1 PUSH2 0x1034 SWAP2 SWAP1 PUSH2 0x161E JUMP JUMPDEST SWAP1 POP PUSH1 0x7 SLOAD DUP2 LT ISZERO PUSH2 0x1078 JUMPI PUSH1 0x40 MLOAD PUSH3 0x461BCD PUSH1 0xE5 SHL DUP2 MSTORE PUSH1 0x20 PUSH1 0x4 DUP3 ADD MSTORE PUSH1 0xD PUSH1 0x24 DUP3 ADD MSTORE PUSH13 0x5969656C6420746F6F206C6F77 PUSH1 0x98 SHL PUSH1 0x44 DUP3 ADD MSTORE PUSH1 0x64 ADD PUSH2 0x4D7 JUMP JUMPDEST PUSH1 0x3 DUP3 ADD SLOAD DUP3 SLOAD PUSH1 0x40 MLOAD PUSH4 0xBF33C3F PUSH1 0xE2 SHL DUP2 MSTORE PUSH1 0x1 PUSH1 0x1 PUSH1 0xA0 SHL SUB SWAP3 DUP4 AND PUSH1 0x4 DUP3 ADD MSTORE PUSH1 0x24 DUP2 ADD SWAP2 SWAP1 SWAP2 MSTORE PUSH1 0x0 SWAP2 PUSH32 0x0 AND SWAP1 PUSH4 0x2FCCF0FC SWAP1 PUSH1 0x44 ADD PUSH1 0x20 PUSH1 0x40 MLOAD DUP1 DUP4 SUB DUP2 DUP7 GAS STATICCALL ISZERO DUP1 ISZERO PUSH2 0x10F0 JUMPI RETURNDATASIZE PUSH1 0x0 DUP1 RETURNDATACOPY RETURNDATASIZE PUSH1 0x0 REVERT JUMPDEST POP POP POP POP PUSH1 0x40 MLOAD RETURNDATASIZE PUSH1 0x1F NOT PUSH1 0x1F DUP3 ADD AND DUP3 ADD DUP1 PUSH1 0x40 MSTORE POP DUP2 ADD SWAP1 PUSH2 0x1114 SWAP2 SWAP1 PUSH2 0x161E JUMP JUMPDEST SWAP1 POP PUSH1 0x0 DUP4 PUSH1 0x1 ADD SLOAD DUP3 PUSH1 0x64 PUSH2 0x112A SWAP2 SWAP1 PUSH2 0x164D JUMP JUMPDEST PUSH2 0x1134 SWAP2 SWAP1 PUSH2 0x1664 JUMP JUMPDEST SWAP1 POP PUSH1 0x78 DUP2 LT ISZERO PUSH2 0x1179 JUMPI PUSH1 0x40 MLOAD PUSH3 0x461BCD PUSH1 0xE5 SHL DUP2 MSTORE PUSH1 0x20 PUSH1 0x4 DUP3 ADD MSTORE PUSH1 0xF PUSH1 0x24 DUP3 ADD MSTORE PUSH15 0x155B9A19585B1D1A1E481D985D5B1D PUSH1 0x8A SHL PUSH1 0x44 DUP3 ADD MSTORE PUSH1 0x64 ADD PUSH2 0x4D7 JUMP JUMPDEST PUSH1 0x3 DUP5 ADD SLOAD PUSH1 0x40 MLOAD PUSH4 0x999927DF PUSH1 0xE0 SHL DUP2 MSTORE PUSH1 0x1 PUSH1 0x1 PUSH1 0xA0 SHL SUB DUP8 DUP2 AND PUSH1 0x4 DUP4 ADD MSTORE PUSH1 0x0 SWAP3 AND SWAP1 PUSH4 0x999927DF SWAP1 PUSH1 0x24 ADD PUSH1 0x20 PUSH1 0x40 MLOAD DUP1 DUP4 SUB DUP2 PUSH1 0x0 DUP8 GAS CALL ISZERO DUP1 ISZERO PUSH2 0x11C8 JUMPI RETURNDATASIZE PUSH1 0x0 DUP1 RETURNDATACOPY RETURNDATASIZE PUSH1 0x0 REVERT JUMPDEST POP POP POP POP PUSH1 0x40 MLOAD RETURNDATASIZE PUSH1 0x1F NOT PUSH1 0x1F DUP3 ADD AND DUP3 ADD DUP1 PUSH1 0x40 MSTORE POP DUP2 ADD SWAP1 PUSH2 0x11EC SWAP2 SWAP1 PUSH2 0x161E JUMP JUMPDEST SWAP1 POP DUP1 PUSH1 0x0 SUB PUSH2 0x1200 JUMPI POP POP POP POP POP PUSH2 0x13BF JUMP JUMPDEST PUSH1 0x0 PUSH1 0x64 PUSH2 0x120F PUSH1 0x14 DUP5 PUSH2 0x164D JUMP JUMPDEST PUSH2 0x1219 SWAP2 SWAP1 PUSH2 0x1664 JUMP JUMPDEST SWAP1 POP PUSH1 0x0 PUSH2 0x1227 DUP3 DUP5 PUSH2 0x16EA JUMP JUMPDEST SWAP1 POP DUP7 PUSH1 0x1 ADD SLOAD DUP2 LT PUSH2 0x1245 JUMPI POP PUSH1 0x1 DUP7 ADD DUP1 SLOAD PUSH1 0x0 SWAP1 SWAP2 SSTORE PUSH2 0x125F JUMP JUMPDEST DUP1 DUP8 PUSH1 0x1 ADD PUSH1 0x0 DUP3 DUP3 SLOAD PUSH2 0x1259 SWAP2 SWAP1 PUSH2 0x16EA JUMP JUMPDEST SWAP1 SWAP2 SSTORE POP POP JUMPDEST TIMESTAMP PUSH1 0x2 DUP9 ADD DUP2 SWAP1 SSTORE PUSH1 0x4 DUP9 ADD SSTORE PUSH1 0x9 DUP1 SLOAD DUP4 SWAP2 SWAP1 PUSH1 0x0 SWAP1 PUSH2 0x1281 SWAP1 DUP5 SWAP1 PUSH2 0x16D7 JUMP JUMPDEST SWAP1 SWAP2 SSTORE POP POP PUSH1 0xA DUP1 SLOAD SWAP1 PUSH1 0x0 PUSH2 0x1296 DUP4 PUSH2 0x16A8 JUMP JUMPDEST SWAP1 SWAP2 SSTORE POP POP PUSH1 0x3 DUP8 ADD SLOAD PUSH1 0x1 PUSH1 0x1 PUSH1 0xA0 SHL SUB AND PUSH4 0xA9059CBB PUSH2 0x12C0 PUSH1 0x1 SLOAD PUSH1 0x1 PUSH1 0x1 PUSH1 0xA0 SHL SUB AND SWAP1 JUMP JUMPDEST PUSH1 0x40 MLOAD PUSH1 0x1 PUSH1 0x1 PUSH1 0xE0 SHL SUB NOT PUSH1 0xE0 DUP5 SWAP1 SHL AND DUP2 MSTORE PUSH1 0x1 PUSH1 0x1 PUSH1 0xA0 SHL SUB SWAP1 SWAP2 AND PUSH1 0x4 DUP3 ADD MSTORE PUSH1 0x24 DUP2 ADD DUP6 SWAP1 MSTORE PUSH1 0x44 ADD PUSH1 0x20 PUSH1 0x40 MLOAD DUP1 DUP4 SUB DUP2 PUSH1 0x0 DUP8 GAS CALL ISZERO DUP1 ISZERO PUSH2 0x130D JUMPI RETURNDATASIZE PUSH1 0x0 DUP1 RETURNDATACOPY RETURNDATASIZE PUSH1 0x0 REVERT JUMPDEST POP POP POP POP PUSH1 0x40 MLOAD RETURNDATASIZE PUSH1 0x1F NOT PUSH1 0x1F DUP3 ADD AND DUP3 ADD DUP1 PUSH1 0x40 MSTORE POP DUP2 ADD SWAP1 PUSH2 0x1331 SWAP2 SWAP1 PUSH2 0x1686 JUMP JUMPDEST POP PUSH1 0x40 DUP1 MLOAD DUP5 DUP2 MSTORE PUSH1 0x20 DUP2 ADD DUP4 SWAP1 MSTORE PUSH1 0x1 PUSH1 0x1 PUSH1 0xA0 SHL SUB DUP11 AND SWAP2 PUSH32 0x56F9D080F52C224C1096CB80FADD8B3FF92A48C0B5AEACDC2BCD3EF1DF98DF30 SWAP2 ADD PUSH1 0x40 MLOAD DUP1 SWAP2 SUB SWAP1 LOG2 DUP7 PUSH1 0x1 ADD SLOAD PUSH1 0x0 SUB PUSH2 0x13B7 JUMPI PUSH1 0x40 MLOAD PUSH1 0x1 PUSH1 0x1 PUSH1 0xA0 SHL SUB DUP10 AND SWAP1 PUSH32 0xE878654B01A78B867C21C011576AD0CE2B8EDE58EC2B1F232EC8C3D0ACCC662C SWAP1 PUSH1 0x0 SWAP1 LOG2 JUMPDEST POP POP POP POP POP POP POP JUMPDEST PUSH2 0x13C9 PUSH1 0x1 PUSH1 0x0 SSTORE JUMP JUMPDEST POP JUMP JUMPDEST PUSH2 0x13D4 PUSH2 0x1407 JUMP JUMPDEST PUSH1 0x1 PUSH1 0x1 PUSH1 0xA0 SHL SUB DUP2 AND PUSH2 0x13FE JUMPI PUSH1 0x40 MLOAD PUSH4 0x1E4FBDF7 PUSH1 0xE0 SHL DUP2 MSTORE PUSH1 0x0 PUSH1 0x4 DUP3 ADD MSTORE PUSH1 0x24 ADD PUSH2 0x4D7 JUMP JUMPDEST PUSH2 0x13C9 DUP2 PUSH2 0x145E JUMP JUMPDEST PUSH1 0x1 SLOAD PUSH1 0x1 PUSH1 0x1 PUSH1 0xA0 SHL SUB AND CALLER EQ PUSH2 0xA47 JUMPI PUSH1 0x40 MLOAD PUSH4 0x118CDAA7 PUSH1 0xE0 SHL DUP2 MSTORE CALLER PUSH1 0x4 DUP3 ADD MSTORE PUSH1 0x24 ADD PUSH2 0x4D7 JUMP JUMPDEST PUSH1 0x2 PUSH1 0x0 SLOAD SUB PUSH2 0x1457 JUMPI PUSH1 0x40 MLOAD PUSH4 0x3EE5AEB5 PUSH1 0xE0 SHL DUP2 MSTORE PUSH1 0x4 ADD PUSH1 0x40 MLOAD DUP1 SWAP2 SUB SWAP1 REVERT JUMPDEST PUSH1 0x2 PUSH1 0x0 SSTORE JUMP JUMPDEST PUSH1 0x1 DUP1 SLOAD PUSH1 0x1 PUSH1 0x1 PUSH1 0xA0 SHL SUB DUP4 DUP2 AND PUSH1 0x1 PUSH1 0x1 PUSH1 0xA0 SHL SUB NOT DUP4 AND DUP2 OR SWAP1 SWAP4 SSTORE PUSH1 0x40 MLOAD SWAP2 AND SWAP2 SWAP1 DUP3 SWAP1 PUSH32 0x8BE0079C531659141344CD1FD0A4F28419497F9722A3DAAFE3B4186F6B6457E0 SWAP1 PUSH1 0x0 SWAP1 LOG3 POP POP JUMP JUMPDEST DUP1 CALLDATALOAD PUSH1 0x1 PUSH1 0x1 PUSH1 0xA0 SHL SUB DUP2 AND DUP2 EQ PUSH2 0x14C7 JUMPI PUSH1 0x0 DUP1 REVERT JUMPDEST SWAP2 SWAP1 POP JUMP JUMPDEST PUSH1 0x0 PUSH1 0x20 DUP3 DUP5 SUB SLT ISZERO PUSH2 0x14DE JUMPI PUSH1 0x0 DUP1 REVERT JUMPDEST PUSH2 0x14E7 DUP3 PUSH2 0x14B0 JUMP JUMPDEST SWAP4 SWAP3 POP POP POP JUMP JUMPDEST PUSH1 0x0 DUP1 PUSH1 0x0 PUSH1 0x60 DUP5 DUP7 SUB SLT ISZERO PUSH2 0x1503 JUMPI PUSH1 0x0 DUP1 REVERT JUMPDEST PUSH2 0x150C DUP5 PUSH2 0x14B0 JUMP JUMPDEST SWAP6 PUSH1 0x20 DUP6 ADD CALLDATALOAD SWAP6 POP PUSH1 0x40 SWAP1 SWAP5 ADD CALLDATALOAD SWAP4 SWAP3 POP POP POP JUMP JUMPDEST PUSH1 0x0 DUP1 PUSH1 0x20 DUP4 DUP6 SUB SLT ISZERO PUSH2 0x1534 JUMPI PUSH1 0x0 DUP1 REVERT JUMPDEST DUP3 CALLDATALOAD PUSH8 0xFFFFFFFFFFFFFFFF DUP1 DUP3 GT ISZERO PUSH2 0x154C JUMPI PUSH1 0x0 DUP1 REVERT JUMPDEST DUP2 DUP6 ADD SWAP2 POP DUP6 PUSH1 0x1F DUP4 ADD SLT PUSH2 0x1560 JUMPI PUSH1 0x0 DUP1 REVERT JUMPDEST DUP2 CALLDATALOAD DUP2 DUP2 GT ISZERO PUSH2 0x156F JUMPI PUSH1 0x0 DUP1 REVERT JUMPDEST DUP7 PUSH1 0x20 DUP3 PUSH1 0x5 SHL DUP6 ADD ADD GT ISZERO PUSH2 0x1584 JUMPI PUSH1 0x0 DUP1 REVERT JUMPDEST PUSH1 0x20 SWAP3 SWAP1 SWAP3 ADD SWAP7 SWAP2 SWAP6 POP SWAP1 SWAP4 POP POP POP POP JUMP JUMPDEST PUSH1 0x0 DUP1 PUSH1 0x40 DUP4 DUP6 SUB SLT ISZERO PUSH2 0x15A9 JUMPI PUSH1 0x0 DUP1 REVERT JUMPDEST POP POP DUP1 CALLDATALOAD SWAP3 PUSH1 0x20 SWAP1 SWAP2 ADD CALLDATALOAD SWAP2 POP JUMP JUMPDEST PUSH1 0x20 DUP1 DUP3 MSTORE DUP3 MLOAD DUP3 DUP3 ADD DUP2 SWAP1 MSTORE PUSH1 0x0 SWAP2 SWAP1 DUP5 DUP3 ADD SWAP1 PUSH1 0x40 DUP6 ADD SWAP1 DUP5 JUMPDEST DUP2 DUP2 LT ISZERO PUSH2 0x15F9 JUMPI DUP4 MLOAD PUSH1 0x1 PUSH1 0x1 PUSH1 0xA0 SHL SUB AND DUP4 MSTORE SWAP3 DUP5 ADD SWAP3 SWAP2 DUP5 ADD SWAP2 PUSH1 0x1 ADD PUSH2 0x15D4 JUMP JUMPDEST POP SWAP1 SWAP7 SWAP6 POP POP POP POP POP POP JUMP JUMPDEST PUSH1 0x0 PUSH1 0x20 DUP3 DUP5 SUB SLT ISZERO PUSH2 0x1617 JUMPI PUSH1 0x0 DUP1 REVERT JUMPDEST POP CALLDATALOAD SWAP2 SWAP1 POP JUMP JUMPDEST PUSH1 0x0 PUSH1 0x20 DUP3 DUP5 SUB SLT ISZERO PUSH2 0x1630 JUMPI PUSH1 0x0 DUP1 REVERT JUMPDEST POP MLOAD SWAP2 SWAP1 POP JUMP JUMPDEST PUSH4 0x4E487B71 PUSH1 0xE0 SHL PUSH1 0x0 MSTORE PUSH1 0x11 PUSH1 0x4 MSTORE PUSH1 0x24 PUSH1 0x0 REVERT JUMPDEST DUP1 DUP3 MUL DUP2 ISZERO DUP3 DUP3 DIV DUP5 EQ OR PUSH2 0xEB7 JUMPI PUSH2 0xEB7 PUSH2 0x1637 JUMP JUMPDEST PUSH1 0x0 DUP3 PUSH2 0x1681 JUMPI PUSH4 0x4E487B71 PUSH1 0xE0 SHL PUSH1 0x0 MSTORE PUSH1 0x12 PUSH1 0x4 MSTORE PUSH1 0x24 PUSH1 0x0 REVERT JUMPDEST POP DIV SWAP1 JUMP JUMPDEST PUSH1 0x0 PUSH1 0x20 DUP3 DUP5 SUB SLT ISZERO PUSH2 0x1698 JUMPI PUSH1 0x0 DUP1 REVERT JUMPDEST DUP2 MLOAD DUP1 ISZERO ISZERO DUP2 EQ PUSH2 0x14E7 JUMPI PUSH1 0x0 DUP1 REVERT JUMPDEST PUSH1 0x0 PUSH1 0x1 DUP3 ADD PUSH2 0x16BA JUMPI PUSH2 0x16BA PUSH2 0x1637 JUMP JUMPDEST POP PUSH1 0x1 ADD SWAP1 JUMP JUMPDEST PUSH4 0x4E487B71 PUSH1 0xE0 SHL PUSH1 0x0 MSTORE PUSH1 0x32 PUSH1 0x4 MSTORE PUSH1 0x24 PUSH1 0x0 REVERT JUMPDEST DUP1 DUP3 ADD DUP1 DUP3 GT ISZERO PUSH2 0xEB7 JUMPI PUSH2 0xEB7 PUSH2 0x1637 JUMP JUMPDEST DUP2 DUP2 SUB DUP2 DUP2 GT ISZERO PUSH2 0xEB7 JUMPI PUSH2 0xEB7 PUSH2 0x1637 JUMP JUMPDEST PUSH4 0x4E487B71 PUSH1 0xE0 SHL PUSH1 0x0 MSTORE PUSH1 0x41 PUSH1 0x4 MSTORE PUSH1 0x24 PUSH1 0x0 REVERT INVALID LOG2 PUSH5 0x6970667358 0x22 SLT KECCAK256 POP 0xAE 0xE4 0xC0 0xEC 0xB6 0xA9 0x4C 0x4E 0xB4 LOG3 PUSH15 0xA9286C647CD6AA761D0C3F87BCB4F6 0xBF 0xFC 0xE4 0xCA PUSH11 0x64736F6C63430008140033 "
        },
        "methodIdentifiers": {
          "BASIS_POINTS()": "e1f1c4a7",
          "LIQUIDATION_THRESHOLD()": "90a8ae9b",
          "LTV_RATIO()": "5696b189",
          "PROTOCOL_FEE()": "0b4501fd",
          "addKeeper(address)": "4032b72b",
          "addSupportedCollateral(address)": "536db2e6",
          "allVaultOwners(uint256)": "b5d4a126",
          "autoCheckInterval()": "ab19582d",
          "autoRepaymentCount()": "57ed6c17",
          "depositCollateralAndBorrow(address,uint256,uint256)": "44def843",
          "getAllVaultOwners(uint256,uint256)": "9a398580",
          "getVaultInfo(address)": "90229af7",
          "keepers(address)": "3bbd64bc",
          "minYieldThreshold()": "e68f2195",
          "owner()": "8da5cb5b",
          "priceOracle()": "2630c12f",
          "processAutoRepayment(address)": "e73a4e88",
          "processMultipleAutoRepayments(address[])": "8fa3c532",
          "renounceOwnership()": "715018a6",
          "stablecoin()": "e9cbd822",
          "supportedCollateral(address)": "fa550eba",
          "totalProtocolRevenue()": "8c37f11d",
          "totalVaults()": "8d654023",
          "transferOwnership(address)": "f2fde38b",
          "vaults(address)": "a622ee7c",
          "withdrawCollateral()": "59c153be"
        }
      }
    }
  }
}