{
  "contracts/ProductionPriceOracle.sol": {
    "ProductionPriceOracle": {
      "abi": [
        {
          "inputs": [],
          "stateMutability": "nonpayable",
          "type": "constructor"
        },
        {
          "inputs": [
            {
              "internalType": "address",
              "name": "owner",
              "type": "address"
            }
          ],
          "name": "OwnableInvalidOwner",
          "type": "error"
        },
        {
          "inputs": [
            {
              "internalType": "address",
              "name": "account",
              "type": "address"
            }
          ],
          "name": "OwnableUnauthorizedAccount",
          "type": "error"
        },
        {
          "anonymous": false,
          "inputs": [
            {
              "indexed": true,
              "internalType": "address",
              "name": "previousOwner",
              "type": "address"
            },
            {
              "indexed": true,
              "internalType": "address",
              "name": "newOwner",
              "type": "address"
            }
          ],
          "name": "OwnershipTransferred",
          "type": "event"
        },
        {
          "inputs": [
            {
              "internalType": "address",
              "name": "asset",
              "type": "address"
            },
            {
              "internalType": "uint256",
              "name": "amount",
              "type": "uint256"
            }
          ],
          "name": "getAssetValue",
          "outputs": [
            {
              "internalType": "uint256",
              "name": "",
              "type": "uint256"
            }
          ],
          "stateMutability": "view",
          "type": "function"
        },
        {
          "inputs": [
            {
              "internalType": "address",
              "name": "asset",
              "type": "address"
            }
          ],
          "name": "getLatestPrice",
          "outputs": [
            {
              "internalType": "uint256",
              "name": "",
              "type": "uint256"
            }
          ],
          "stateMutability": "view",
          "type": "function"
        },
        {
          "inputs": [],
          "name": "owner",
          "outputs": [
            {
              "internalType": "address",
              "name": "",
              "type": "address"
            }
          ],
          "stateMutability": "view",
          "type": "function"
        },
        {
          "inputs": [
            {
              "internalType": "address",
              "name": "",
              "type": "address"
            }
          ],
          "name": "priceFeeds",
          "outputs": [
            {
              "internalType": "contract AggregatorV3Interface",
              "name": "",
              "type": "address"
            }
          ],
          "stateMutability": "view",
          "type": "function"
        },
        {
          "inputs": [],
          "name": "renounceOwnership",
          "outputs": [],
          "stateMutability": "nonpayable",
          "type": "function"
        },
        {
          "inputs": [
            {
              "internalType": "address",
              "name": "asset",
              "type": "address"
            },
            {
              "internalType": "address",
              "name": "chainlinkFeed",
              "type": "address"
            }
          ],
          "name": "setPriceFeed",
          "outputs": [],
          "stateMutability": "nonpayable",
          "type": "function"
        },
        {
          "inputs": [
            {
              "internalType": "address",
              "name": "newOwner",
              "type": "address"
            }
          ],
          "name": "transferOwnership",
          "outputs": [],
          "stateMutability": "nonpayable",
          "type": "function"
        }
      ],
      "evm": {
        "bytecode": {
          "linkReferences": {},
          "object": "608060405234801561001057600080fd5b50338061003757604051631e4fbdf760e01b81526000600482015260240160405180910390fd5b61004081610046565b50610096565b600080546001600160a01b038381166001600160a01b0319831681178455604051919092169283917f8be0079c531659141344cd1fd0a4f28419497f9722a3daafe3b4186f6b6457e09190a35050565b610509806100a56000396000f3fe608060405234801561001057600080fd5b506004361061007d5760003560e01c806376e112861161005b57806376e11286146100c55780638da5cb5b146100d85780639dcb511a146100fd578063f2fde38b1461012657600080fd5b806316345f18146100825780632fccf0fc146100a8578063715018a6146100bb575b600080fd5b6100956100903660046103aa565b610139565b6040519081526020015b60405180910390f35b6100956100b63660046103c5565b610249565b6100c3610289565b005b6100c36100d33660046103ef565b61029d565b6000546001600160a01b03165b6040516001600160a01b03909116815260200161009f565b6100e561010b3660046103aa565b6001602052600090815260409020546001600160a01b031681565b6100c36101343660046103aa565b6102d3565b6001600160a01b03808216600090815260016020526040812054909116806101985760405162461bcd60e51b815260206004820152600d60248201526c139bc81c1c9a58d94819995959609a1b60448201526064015b60405180910390fd5b6000816001600160a01b031663feaf968c6040518163ffffffff1660e01b815260040160a060405180830381865afa1580156101d8573d6000803e3d6000fd5b505050506040513d601f19601f820116820180604052508101906101fc919061043c565b505050915050600081136102425760405162461bcd60e51b815260206004820152600d60248201526c496e76616c696420707269636560981b604482015260640161018f565b9392505050565b60008061025584610139565b90506305f5e100610266828561048c565b610275906402540be40061048c565b61027f91906104b1565b9150505b92915050565b610291610311565b61029b600061033e565b565b6102a5610311565b6001600160a01b03918216600090815260016020526040902080546001600160a01b03191691909216179055565b6102db610311565b6001600160a01b03811661030557604051631e4fbdf760e01b81526000600482015260240161018f565b61030e8161033e565b50565b6000546001600160a01b0316331461029b5760405163118cdaa760e01b815233600482015260240161018f565b600080546001600160a01b038381166001600160a01b0319831681178455604051919092169283917f8be0079c531659141344cd1fd0a4f28419497f9722a3daafe3b4186f6b6457e09190a35050565b80356001600160a01b03811681146103a557600080fd5b919050565b6000602082840312156103bc57600080fd5b6102428261038e565b600080604083850312156103d857600080fd5b6103e18361038e565b946020939093013593505050565b6000806040838503121561040257600080fd5b61040b8361038e565b91506104196020840161038e565b90509250929050565b805169ffffffffffffffffffff811681146103a557600080fd5b600080600080600060a0868803121561045457600080fd5b61045d86610422565b945060208601519350604086015192506060860151915061048060808701610422565b90509295509295909350565b808202811582820484141761028357634e487b7160e01b600052601160045260246000fd5b6000826104ce57634e487b7160e01b600052601260045260246000fd5b50049056fea26469706673582212202ef89036d4e7814b10d1bf1a7fed2065349ed1f1635b4636aba6fda7a955e9d264736f6c63430008140033",
          "opcodes": "PUSH1 0x80 PUSH1 0x40 MSTORE CALLVALUE DUP1 ISZERO PUSH2 0x10 JUMPI PUSH1 0x0 DUP1 REVERT JUMPDEST POP CALLER DUP1 PUSH2 0x37 JUMPI PUSH1 0x40 MLOAD PUSH4 0x1E4FBDF7 PUSH1 0xE0 SHL DUP2 MSTORE PUSH1 0x0 PUSH1 0x4 DUP3 ADD MSTORE PUSH1 0x24 ADD PUSH1 0x40 MLOAD DUP1 SWAP2 SUB SWAP1 REVERT JUMPDEST PUSH2 0x40 DUP2 PUSH2 0x46 JUMP JUMPDEST POP PUSH2 0x96 JUMP JUMPDEST PUSH1 0x0 DUP1 SLOAD PUSH1 0x1 PUSH1 0x1 PUSH1 0xA0 SHL SUB DUP4 DUP2 AND PUSH1 0x1 PUSH1 0x1 PUSH1 0xA0 SHL SUB NOT DUP4 AND DUP2 OR DUP5 SSTORE PUSH1 0x40 MLOAD SWAP2 SWAP1 SWAP3 AND SWAP3 DUP4 SWAP2 PUSH32 0x8BE0079C531659141344CD1FD0A4F28419497F9722A3DAAFE3B4186F6B6457E0 SWAP2 SWAP1 LOG3 POP POP JUMP JUMPDEST PUSH2 0x509 DUP1 PUSH2 0xA5 PUSH1 0x0 CODECOPY PUSH1 0x0 RETURN INVALID PUSH1 0x80 PUSH1 0x40 MSTORE CALLVALUE DUP1 ISZERO PUSH2 0x10 JUMPI PUSH1 0x0 DUP1 REVERT JUMPDEST POP PUSH1 0x4 CALLDATASIZE LT PUSH2 0x7D JUMPI PUSH1 0x0 CALLDATALOAD PUSH1 0xE0 SHR DUP1 PUSH4 0x76E11286 GT PUSH2 0x5B JUMPI DUP1 PUSH4 0x76E11286 EQ PUSH2 0xC5 JUMPI DUP1 PUSH4 0x8DA5CB5B EQ PUSH2 0xD8 JUMPI DUP1 PUSH4 0x9DCB511A EQ PUSH2 0xFD JUMPI DUP1 PUSH4 0xF2FDE38B EQ PUSH2 0x126 JUMPI PUSH1 0x0 DUP1 REVERT JUMPDEST DUP1 PUSH4 0x16345F18 EQ PUSH2 0x82 JUMPI DUP1 PUSH4 0x2FCCF0FC EQ PUSH2 0xA8 JUMPI DUP1 PUSH4 0x715018A6 EQ PUSH2 0xBB JUMPI JUMPDEST PUSH1 0x0 DUP1 REVERT JUMPDEST PUSH2 0x95 PUSH2 0x90 CALLDATASIZE PUSH1 0x4 PUSH2 0x3AA JUMP JUMPDEST PUSH2 0x139 JUMP JUMPDEST PUSH1 0x40 MLOAD SWAP1 DUP2 MSTORE PUSH1 0x20 ADD JUMPDEST PUSH1 0x40 MLOAD DUP1 SWAP2 SUB SWAP1 RETURN JUMPDEST PUSH2 0x95 PUSH2 0xB6 CALLDATASIZE PUSH1 0x4 PUSH2 0x3C5 JUMP JUMPDEST PUSH2 0x249 JUMP JUMPDEST PUSH2 0xC3 PUSH2 0x289 JUMP JUMPDEST STOP JUMPDEST PUSH2 0xC3 PUSH2 0xD3 CALLDATASIZE PUSH1 0x4 PUSH2 0x3EF JUMP JUMPDEST PUSH2 0x29D JUMP JUMPDEST PUSH1 0x0 SLOAD PUSH1 0x1 PUSH1 0x1 PUSH1 0xA0 SHL SUB AND JUMPDEST PUSH1 0x40 MLOAD PUSH1 0x1 PUSH1 0x1 PUSH1 0xA0 SHL SUB SWAP1 SWAP2 AND DUP2 MSTORE PUSH1 0x20 ADD PUSH2 0x9F JUMP JUMPDEST PUSH2 0xE5 PUSH2 0x10B CALLDATASIZE PUSH1 0x4 PUSH2 0x3AA JUMP JUMPDEST PUSH1 0x1 PUSH1 0x20 MSTORE PUSH1 0x0 SWAP1 DUP2 MSTORE PUSH1 0x40 SWAP1 KECCAK256 SLOAD PUSH1 0x1 PUSH1 0x1 PUSH1 0xA0 SHL SUB AND DUP2 JUMP JUMPDEST PUSH2 0xC3 PUSH2 0x134 CALLDATASIZE PUSH1 0x4 PUSH2 0x3AA JUMP JUMPDEST PUSH2 0x2D3 JUMP JUMPDEST PUSH1 0x1 PUSH1 0x1 PUSH1 0xA0 SHL SUB DUP1 DUP3 AND PUSH1 0x0 SWAP1 DUP2 MSTORE PUSH1 0x1 PUSH1 0x20 MSTORE PUSH1 0x40 DUP2 KECCAK256 SLOAD SWAP1 SWAP2 AND DUP1 PUSH2 0x198 JUMPI PUSH1 0x40 MLOAD PUSH3 0x461BCD PUSH1 0xE5 SHL DUP2 MSTORE PUSH1 0x20 PUSH1 0x4 DUP3 ADD MSTORE PUSH1 0xD PUSH1 0x24 DUP3 ADD MSTORE PUSH13 0x139BC81C1C9A58D94819995959 PUSH1 0x9A SHL PUSH1 0x44 DUP3 ADD MSTORE PUSH1 0x64 ADD JUMPDEST PUSH1 0x40 MLOAD DUP1 SWAP2 SUB SWAP1 REVERT JUMPDEST PUSH1 0x0 DUP2 PUSH1 0x1 PUSH1 0x1 PUSH1 0xA0 SHL SUB AND PUSH4 0xFEAF968C PUSH1 0x40 MLOAD DUP2 PUSH4 0xFFFFFFFF AND PUSH1 0xE0 SHL DUP2 MSTORE PUSH1 0x4 ADD PUSH1 0xA0 PUSH1 0x40 MLOAD DUP1 DUP4 SUB DUP2 DUP7 GAS STATICCALL ISZERO DUP1 ISZERO PUSH2 0x1D8 JUMPI RETURNDATASIZE PUSH1 0x0 DUP1 RETURNDATACOPY RETURNDATASIZE PUSH1 0x0 REVERT JUMPDEST POP POP POP POP PUSH1 0x40 MLOAD RETURNDATASIZE PUSH1 0x1F NOT PUSH1 0x1F DUP3 ADD AND DUP3 ADD DUP1 PUSH1 0x40 MSTORE POP DUP2 ADD SWAP1 PUSH2 0x1FC SWAP2 SWAP1 PUSH2 0x43C JUMP JUMPDEST POP POP POP SWAP2 POP POP PUSH1 0x0 DUP2 SGT PUSH2 0x242 JUMPI PUSH1 0x40 MLOAD PUSH3 0x461BCD PUSH1 0xE5 SHL DUP2 MSTORE PUSH1 0x20 PUSH1 0x4 DUP3 ADD MSTORE PUSH1 0xD PUSH1 0x24 DUP3 ADD MSTORE PUSH13 0x496E76616C6964207072696365 PUSH1 0x98 SHL PUSH1 0x44 DUP3 ADD MSTORE PUSH1 0x64 ADD PUSH2 0x18F JUMP JUMPDEST SWAP4 SWAP3 POP POP POP JUMP JUMPDEST PUSH1 0x0 DUP1 PUSH2 0x255 DUP5 PUSH2 0x139 JUMP JUMPDEST SWAP1 POP PUSH4 0x5F5E100 PUSH2 0x266 DUP3 DUP6 PUSH2 0x48C JUMP JUMPDEST PUSH2 0x275 SWAP1 PUSH5 0x2540BE400 PUSH2 0x48C JUMP JUMPDEST PUSH2 0x27F SWAP2 SWAP1 PUSH2 0x4B1 JUMP JUMPDEST SWAP2 POP POP JUMPDEST SWAP3 SWAP2 POP POP JUMP JUMPDEST PUSH2 0x291 PUSH2 0x311 JUMP JUMPDEST PUSH2 0x29B PUSH1 0x0 PUSH2 0x33E JUMP JUMPDEST JUMP JUMPDEST PUSH2 0x2A5 PUSH2 0x311 JUMP JUMPDEST PUSH1 0x1 PUSH1 0x1 PUSH1 0xA0 SHL SUB SWAP2 DUP3 AND PUSH1 0x0 SWAP1 DUP2 MSTORE PUSH1 0x1 PUSH1 0x20 MSTORE PUSH1 0x40 SWAP1 KECCAK256 DUP1 SLOAD PUSH1 0x1 PUSH1 0x1 PUSH1 0xA0 SHL SUB NOT AND SWAP2 SWAP1 SWAP3 AND OR SWAP1 SSTORE JUMP JUMPDEST PUSH2 0x2DB PUSH2 0x311 JUMP JUMPDEST PUSH1 0x1 PUSH1 0x1 PUSH1 0xA0 SHL SUB DUP2 AND PUSH2 0x305 JUMPI PUSH1 0x40 MLOAD PUSH4 0x1E4FBDF7 PUSH1 0xE0 SHL DUP2 MSTORE PUSH1 0x0 PUSH1 0x4 DUP3 ADD MSTORE PUSH1 0x24 ADD PUSH2 0x18F JUMP JUMPDEST PUSH2 0x30E DUP2 PUSH2 0x33E JUMP JUMPDEST POP JUMP JUMPDEST PUSH1 0x0 SLOAD PUSH1 0x1 PUSH1 0x1 PUSH1 0xA0 SHL SUB AND CALLER EQ PUSH2 0x29B JUMPI PUSH1 0x40 MLOAD PUSH4 0x118CDAA7 PUSH1 0xE0 SHL DUP2 MSTORE CALLER PUSH1 0x4 DUP3 ADD MSTORE PUSH1 0x24 ADD PUSH2 0x18F JUMP JUMPDEST PUSH1 0x0 DUP1 SLOAD PUSH1 0x1 PUSH1 0x1 PUSH1 0xA0 SHL SUB DUP4 DUP2 AND PUSH1 0x1 PUSH1 0x1 PUSH1 0xA0 SHL SUB NOT DUP4 AND DUP2 OR DUP5 SSTORE PUSH1 0x40 MLOAD SWAP2 SWAP1 SWAP3 AND SWAP3 DUP4 SWAP2 PUSH32 0x8BE0079C531659141344CD1FD0A4F28419497F9722A3DAAFE3B4186F6B6457E0 SWAP2 SWAP1 LOG3 POP POP JUMP JUMPDEST DUP1 CALLDATALOAD PUSH1 0x1 PUSH1 0x1 PUSH1 0xA0 SHL SUB DUP2 AND DUP2 EQ PUSH2 0x3A5 JUMPI PUSH1 0x0 DUP1 REVERT JUMPDEST SWAP2 SWAP1 POP JUMP JUMPDEST PUSH1 0x0 PUSH1 0x20 DUP3 DUP5 SUB SLT ISZERO PUSH2 0x3BC JUMPI PUSH1 0x0 DUP1 REVERT JUMPDEST PUSH2 0x242 DUP3 PUSH2 0x38E JUMP JUMPDEST PUSH1 0x0 DUP1 PUSH1 0x40 DUP4 DUP6 SUB SLT ISZERO PUSH2 0x3D8 JUMPI PUSH1 0x0 DUP1 REVERT JUMPDEST PUSH2 0x3E1 DUP4 PUSH2 0x38E JUMP JUMPDEST SWAP5 PUSH1 0x20 SWAP4 SWAP1 SWAP4 ADD CALLDATALOAD SWAP4 POP POP POP JUMP JUMPDEST PUSH1 0x0 DUP1 PUSH1 0x40 DUP4 DUP6 SUB SLT ISZERO PUSH2 0x402 JUMPI PUSH1 0x0 DUP1 REVERT JUMPDEST PUSH2 0x40B DUP4 PUSH2 0x38E JUMP JUMPDEST SWAP2 POP PUSH2 0x419 PUSH1 0x20 DUP5 ADD PUSH2 0x38E JUMP JUMPDEST SWAP1 POP SWAP3 POP SWAP3 SWAP1 POP JUMP JUMPDEST DUP1 MLOAD PUSH10 0xFFFFFFFFFFFFFFFFFFFF DUP2 AND DUP2 EQ PUSH2 0x3A5 JUMPI PUSH1 0x0 DUP1 REVERT JUMPDEST PUSH1 0x0 DUP1 PUSH1 0x0 DUP1 PUSH1 0x0 PUSH1 0xA0 DUP7 DUP9 SUB SLT ISZERO PUSH2 0x454 JUMPI PUSH1 0x0 DUP1 REVERT JUMPDEST PUSH2 0x45D DUP7 PUSH2 0x422 JUMP JUMPDEST SWAP5 POP PUSH1 0x20 DUP7 ADD MLOAD SWAP4 POP PUSH1 0x40 DUP7 ADD MLOAD SWAP3 POP PUSH1 0x60 DUP7 ADD MLOAD SWAP2 POP PUSH2 0x480 PUSH1 0x80 DUP8 ADD PUSH2 0x422 JUMP JUMPDEST SWAP1 POP SWAP3 SWAP6 POP SWAP3 SWAP6 SWAP1 SWAP4 POP JUMP JUMPDEST DUP1 DUP3 MUL DUP2 ISZERO DUP3 DUP3 DIV DUP5 EQ OR PUSH2 0x283 JUMPI PUSH4 0x4E487B71 PUSH1 0xE0 SHL PUSH1 0x0 MSTORE PUSH1 0x11 PUSH1 0x4 MSTORE PUSH1 0x24 PUSH1 0x0 REVERT JUMPDEST PUSH1 0x0 DUP3 PUSH2 0x4CE JUMPI PUSH4 0x4E487B71 PUSH1 0xE0 SHL PUSH1 0x0 MSTORE PUSH1 0x12 PUSH1 0x4 MSTORE PUSH1 0x24 PUSH1 0x0 REVERT JUMPDEST POP DIV SWAP1 JUMP INVALID LOG2 PUSH5 0x6970667358 0x22 SLT KECCAK256 0x2E 0xF8 SWAP1 CALLDATASIZE 0xD4 0xE7 DUP2 0x4B LT 0xD1 0xBF BYTE PUSH32 0xED2065349ED1F1635B4636ABA6FDA7A955E9D264736F6C634300081400330000 "
        },
        "methodIdentifiers": {
          "getAssetValue(address,uint256)": "2fccf0fc",
          "getLatestPrice(address)": "16345f18",
          "owner()": "8da5cb5b",
          "priceFeeds(address)": "9dcb511a",
          "renounceOwnership()": "715018a6",
          "setPriceFeed(address,address)": "76e11286",
          "transferOwnership(address)": "f2fde38b"
        }
      }
    }
  }
}