{
  "_format": "hh-sol-artifact-1",
  "contractName": "MockMETH",
  "sourceName": "contracts/MockMETH.sol",
  "abi": [
    {
      "inputs": [],
      "stateMutability": "nonpayable",
      "type": "constructor"
    },
    {
      "inputs": [
        {
          "internalType": "address",
          "name": "spender",
          "type": "address"
        },
        {
          "internalType": "uint256",
          "name": "allowance",
          "type": "uint256"
        },
        {
          "internalType": "uint256",
          "name": "needed",
          "type": "uint256"
        }
      ],
      "name": "ERC20InsufficientAllowance",
      "type": "error"
    },
    {
      "inputs": [
        {
          "internalType": "address",
          "name": "sender",
          "type": "address"
        },
        {
          "internalType": "uint256",
          "name": "balance",
          "type": "uint256"
        },
        {
          "internalType": "uint256",
          "name": "needed",
          "type": "uint256"
        }
      ],
      "name": "ERC20InsufficientBalance",
      "type": "error"
    },
    {
      "inputs": [
        {
          "internalType": "address",
          "name": "approver",
          "type": "address"
        }
      ],
      "name": "ERC20InvalidApprover",
      "type": "error"
    },
    {
      "inputs": [
        {
          "internalType": "address",
          "name": "receiver",
          "type": "address"
        }
      ],
      "name": "ERC20InvalidReceiver",
      "type": "error"
    },
    {
      "inputs": [
        {
          "internalType": "address",
          "name": "sender",
          "type": "address"
        }
      ],
      "name": "ERC20InvalidSender",
      "type": "error"
    },
    {
      "inputs": [
        {
          "internalType": "address",
          "name": "spender",
          "type": "address"
        }
      ],
      "name": "ERC20InvalidSpender",
      "type": "error"
    },
    {
      "inputs": [
        {
          "internalType": "address",
          "name": "owner",
          "type": "address"
        }
      ],
      "name": "OwnableInvalidOwner",
      "type": "error"
    },
    {
      "inputs": [
        {
          "internalType": "address",
          "name": "account",
          "type": "address"
        }
      ],
      "name": "OwnableUnauthorizedAccount",
      "type": "error"
    },
    {
      "anonymous": false,
      "inputs": [
        {
          "indexed": true,
          "internalType": "address",
          "name": "owner",
          "type": "address"
        },
        {
          "indexed": true,
          "internalType": "address",
          "name": "spender",
          "type": "address"
        },
        {
          "indexed": false,
          "internalType": "uint256",
          "name": "value",
          "type": "uint256"
        }
      ],
      "name": "Approval",
      "type": "event"
    },
    {
      "anonymous": false,
      "inputs": [
        {
          "indexed": true,
          "internalType": "address",
          "name": "previousOwner",
          "type": "address"
        },
        {
          "indexed": true,
          "internalType": "address",
          "name": "newOwner",
          "type": "address"
        }
      ],
      "name": "OwnershipTransferred",
      "type": "event"
    },
    {
      "anonymous": false,
      "inputs": [
        {
          "indexed": true,
          "internalType": "address",
          "name": "from",
          "type": "address"
        },
        {
          "indexed": true,
          "internalType": "address",
          "name": "to",
          "type": "address"
        },
        {
          "indexed": false,
          "internalType": "uint256",
          "name": "value",
          "type": "uint256"
        }
      ],
      "name": "Transfer",
      "type": "event"
    },
    {
      "anonymous": false,
      "inputs": [
        {
          "indexed": true,
          "internalType": "address",
          "name": "user",
          "type": "address"
        },
        {
          "indexed": false,
          "internalType": "uint256",
          "name": "amount",
          "type": "uint256"
        }
      ],
      "name": "YieldAccumulated",
      "type": "event"
    },
    {
      "anonymous": false,
      "inputs": [
        {
          "indexed": true,
          "internalType": "address",
          "name": "user",
          "type": "address"
        },
        {
          "indexed": false,
          "internalType": "uint256",
          "name": "amount",
          "type": "uint256"
        }
      ],
      "name": "YieldClaimed",
      "type": "event"
    },
    {
      "inputs": [],
      "name": "RATE_DENOMINATOR",
      "outputs": [
        {
          "internalType": "uint256",
          "name": "",
          "type": "uint256"
        }
      ],
      "stateMutability": "view",
      "type": "function"
    },
    {
      "inputs": [],
      "name": "SECONDS_PER_YEAR",
      "outputs": [
        {
          "internalType": "uint256",
          "name": "",
          "type": "uint256"
        }
      ],
      "stateMutability": "view",
      "type": "function"
    },
    {
      "inputs": [],
      "name": "YIELD_RATE",
      "outputs": [
        {
          "internalType": "uint256",
          "name": "",
          "type": "uint256"
        }
      ],
      "stateMutability": "view",
      "type": "function"
    },
    {
      "inputs": [
        {
          "internalType": "address",
          "name": "owner",
          "type": "address"
        },
        {
          "internalType": "address",
          "name": "spender",
          "type": "address"
        }
      ],
      "name": "allowance",
      "outputs": [
        {
          "internalType": "uint256",
          "name": "",
          "type": "uint256"
        }
      ],
      "stateMutability": "view",
      "type": "function"
    },
    {
      "inputs": [
        {
          "internalType": "address",
          "name": "spender",
          "type": "address"
        },
        {
          "internalType": "uint256",
          "name": "value",
          "type": "uint256"
        }
      ],
      "name": "approve",
      "outputs": [
        {
          "internalType": "bool",
          "name": "",
          "type": "bool"
        }
      ],
      "stateMutability": "nonpayable",
      "type": "function"
    },
    {
      "inputs": [
        {
          "internalType": "address",
          "name": "account",
          "type": "address"
        }
      ],
      "name": "balanceOf",
      "outputs": [
        {
          "internalType": "uint256",
          "name": "",
          "type": "uint256"
        }
      ],
      "stateMutability": "view",
      "type": "function"
    },
    {
      "inputs": [
        {
          "internalType": "address",
          "name": "user",
          "type": "address"
        }
      ],
      "name": "claimYield",
      "outputs": [
        {
          "internalType": "uint256",
          "name": "",
          "type": "uint256"
        }
      ],
      "stateMutability": "nonpayable",
      "type": "function"
    },
    {
      "inputs": [],
      "name": "decimals",
      "outputs": [
        {
          "internalType": "uint8",
          "name": "",
          "type": "uint8"
        }
      ],
      "stateMutability": "view",
      "type": "function"
    },
    {
      "inputs": [
        {
          "internalType": "address",
          "name": "user",
          "type": "address"
        }
      ],
      "name": "getPendingYield",
      "outputs": [
        {
          "internalType": "uint256",
          "name": "",
          "type": "uint256"
        }
      ],
      "stateMutability": "view",
      "type": "function"
    },
    {
      "inputs": [
        {
          "internalType": "address",
          "name": "to",
          "type": "address"
        },
        {
          "internalType": "uint256",
          "name": "amount",
          "type": "uint256"
        }
      ],
      "name": "mint",
      "outputs": [],
      "stateMutability": "nonpayable",
      "type": "function"
    },
    {
      "inputs": [],
      "name": "name",
      "outputs": [
        {
          "internalType": "string",
          "name": "",
          "type": "string"
        }
      ],
      "stateMutability": "view",
      "type": "function"
    },
    {
      "inputs": [],
      "name": "owner",
      "outputs": [
        {
          "internalType": "address",
          "name": "",
          "type": "address"
        }
      ],
      "stateMutability": "view",
      "type": "function"
    },
    {
      "inputs": [],
      "name": "renounceOwnership",
      "outputs": [],
      "stateMutability": "nonpayable",
      "type": "function"
    },
    {
      "inputs": [],
      "name": "symbol",
      "outputs": [
        {
          "internalType": "string",
          "name": "",
          "type": "string"
        }
      ],
      "stateMutability": "view",
      "type": "function"
    },
    {
      "inputs": [],
      "name": "totalSupply",
      "outputs": [
        {
          "internalType": "uint256",
          "name": "",
          "type": "uint256"
        }
      ],
      "stateMutability": "view",
      "type": "function"
    },
    {
      "inputs": [
        {
          "internalType": "address",
          "name": "to",
          "type": "address"
        },
        {
          "internalType": "uint256",
          "name": "amount",
          "type": "uint256"
        }
      ],
      "name": "transfer",
      "outputs": [
        {
          "internalType": "bool",
          "name": "",
          "type": "bool"
        }
      ],
      "stateMutability": "nonpayable",
      "type": "function"
    },
    {
      "inputs": [
        {
          "internalType": "address",
          "name": "from",
          "type": "address"
        },
        {
          "internalType": "address",
          "name": "to",
          "type": "address"
        },
        {
          "internalType": "uint256",
          "name": "amount",
          "type": "uint256"
        }
      ],
      "name": "transferFrom",
      "outputs": [
        {
          "internalType": "bool",
          "name": "",
          "type": "bool"
        }
      ],
      "stateMutability": "nonpayable",
      "type": "function"
    },
    {
      "inputs": [
        {
          "internalType": "address",
          "name": "newOwner",
          "type": "address"
        }
      ],
      "name": "transferOwnership",
      "outputs": [],
      "stateMutability": "nonpayable",
      "type": "function"
    },
    {
      "inputs": [],
      "name": "updateMyYield",
      "outputs": [],
      "stateMutability": "nonpayable",
      "type": "function"
    },
    {
      "inputs": [
        {
          "internalType": "address",
          "name": "",
          "type": "address"
        }
      ],
      "name": "userYields",
      "outputs": [
        {
          "internalType": "uint256",
          "name": "balance",
          "type": "uint256"
        },
        {
          "internalType": "uint256",
          "name": "lastUpdateTime",
          "type": "uint256"
        },
        {
          "internalType": "uint256",
          "name": "accumulatedYield",
          "type": "uint256"
        }
      ],
      "stateMutability": "view",
      "type": "function"
    }
  ],
  "bytecode": "0x60806040523480156200001157600080fd5b50336040518060400160405280600f81526020016e09adec6d6409ac2dce8d8ca408aa89608b1b815250604051806040016040528060048152602001630da8aa8960e31b8152508160039081620000699190620001b3565b506004620000788282620001b3565b5050506001600160a01b038116620000aa57604051631e4fbdf760e01b81526000600482015260240160405180910390fd5b620000b581620000bc565b506200027f565b600580546001600160a01b038381166001600160a01b0319831681179093556040519116919082907f8be0079c531659141344cd1fd0a4f28419497f9722a3daafe3b4186f6b6457e090600090a35050565b634e487b7160e01b600052604160045260246000fd5b600181811c908216806200013957607f821691505b6020821081036200015a57634e487b7160e01b600052602260045260246000fd5b50919050565b601f821115620001ae57600081815260208120601f850160051c81016020861015620001895750805b601f850160051c820191505b81811015620001aa5782815560010162000195565b5050505b505050565b81516001600160401b03811115620001cf57620001cf6200010e565b620001e781620001e0845462000124565b8462000160565b602080601f8311600181146200021f5760008415620002065750858301515b600019600386901b1c1916600185901b178555620001aa565b600085815260208120601f198616915b8281101562000250578886015182559484019460019091019084016200022f565b50858210156200026f5787850151600019600388901b60f8161c191681555b5050505050600190811b01905550565b610d7d806200028f6000396000f3fe608060405234801561001057600080fd5b506004361061012c5760003560e01c80637efad8e0116100ad578063dd62ed3e11610071578063dd62ed3e1461029b578063e6a69ab8146102d4578063e852090a146102df578063eb7c910d146102e8578063f2fde38b146102f057600080fd5b80637efad8e0146102495780638da5cb5b1461025257806395d89b411461026d578063999927df14610275578063a9059cbb1461028857600080fd5b8063313ce567116100f4578063313ce567146101e157806340c10f19146101f0578063537bb1371461020557806370a0823114610218578063715018a61461024157600080fd5b806306fdde0314610131578063095ea7b31461014f57806318160ddd1461017257806319bd94281461018457806323b872dd146101ce575b600080fd5b610139610303565b6040516101469190610b7a565b60405180910390f35b61016261015d366004610be4565b610395565b6040519015158152602001610146565b6002545b604051908152602001610146565b6101b3610192366004610c0e565b60066020526000908152604090208054600182015460029092015490919083565b60408051938452602084019290925290820152606001610146565b6101626101dc366004610c29565b6103af565b60405160128152602001610146565b6102036101fe366004610be4565b610431565b005b610176610213366004610c0e565b610475565b610176610226366004610c0e565b6001600160a01b031660009081526020819052604090205490565b61020361052d565b61017661271081565b6005546040516001600160a01b039091168152602001610146565b610139610541565b610176610283366004610c0e565b610550565b610162610296366004610be4565b61062c565b6101766102a9366004610c65565b6001600160a01b03918216600090815260016020908152604080832093909416825291909152205490565b6101766301e1338081565b61017661012c81565b6102036106a3565b6102036102fe366004610c0e565b6106ac565b60606003805461031290610c98565b80601f016020809104026020016040519081016040528092919081815260200182805461033e90610c98565b801561038b5780601f106103605761010080835404028352916020019161038b565b820191906000526020600020905b81548152906001019060200180831161036e57829003601f168201915b5050505050905090565b6000336103a38185856106ea565b60019150505b92915050565b60006103ba846106fc565b6103c3836106fc565b6001600160a01b038416600090815260066020526040812080548492906103eb908490610ce8565b90915550506001600160a01b03831660009081526006602052604081208054849290610418908490610cfb565b9091555061042990508484846107bf565b949350505050565b61043b82826107e3565b610444826106fc565b6001600160a01b0382166000908152600660205260408120805483929061046c908490610cfb565b90915550505050565b6001600160a01b038116600090815260066020908152604080832081516060810183528154808252600183015494820194909452600290910154918101919091529082036104c7576040015192915050565b60008160200151426104d99190610ce8565b905060006104ed6301e13380612710610d0e565b835183906104fe9061012c90610d0e565b6105089190610d0e565b6105129190610d25565b90508083604001516105249190610cfb565b95945050505050565b610535610819565b61053f6000610846565b565b60606004805461031290610c98565b600061055b826106fc565b6001600160a01b038216600090815260066020526040902060020154806105bd5760405162461bcd60e51b81526020600482015260116024820152704e6f207969656c6420746f20636c61696d60781b60448201526064015b60405180910390fd5b6001600160a01b0383166000908152600660205260408120600201556105e333826107e3565b826001600160a01b03167fc04825ba3f383b602255d2a13065a68e325c65c9e0ed5d031ea2b06f641873af8260405161061e91815260200190565b60405180910390a292915050565b6000610637336106fc565b610640836106fc565b336000908152600660205260408120805484929061065f908490610ce8565b90915550506001600160a01b0383166000908152600660205260408120805484929061068c908490610cfb565b9091555061069c90508383610898565b9392505050565b61053f336106fc565b6106b4610819565b6001600160a01b0381166106de57604051631e4fbdf760e01b8152600060048201526024016105b4565b6106e781610846565b50565b6106f783838360016108a6565b505050565b6001600160a01b038116600090815260066020526040812060010154900361073e576001600160a01b0316600090815260066020526040902042600190910155565b600061074982610475565b6001600160a01b03831660009081526006602052604090206002810182905542600190910155905080156107bb57816001600160a01b03167f23e1d823874ceb27840409b5cce587a305ffb2d4bcbf64e03a0b7d243d24ecd8826040516107b291815260200190565b60405180910390a25b5050565b6000336107cd85828561097c565b6107d88585856109f5565b506001949350505050565b6001600160a01b03821661080d5760405163ec442f0560e01b8152600060048201526024016105b4565b6107bb60008383610a50565b6005546001600160a01b0316331461053f5760405163118cdaa760e01b81523360048201526024016105b4565b600580546001600160a01b038381166001600160a01b0319831681179093556040519116919082907f8be0079c531659141344cd1fd0a4f28419497f9722a3daafe3b4186f6b6457e090600090a35050565b6000336103a38185856109f5565b6001600160a01b0384166108d05760405163e602df0560e01b8152600060048201526024016105b4565b6001600160a01b0383166108fa57604051634a1406b160e11b8152600060048201526024016105b4565b6001600160a01b038085166000908152600160209081526040808320938716835292905220829055801561097657826001600160a01b0316846001600160a01b03167f8c5be1e5ebec7d5bd14f71427d1e84f3dd0314c0f7b2291e5b200ac8c7c3b9258460405161096d91815260200190565b60405180910390a35b50505050565b6001600160a01b0383811660009081526001602090815260408083209386168352929052205460001981101561097657818110156109e657604051637dc7a0d960e11b81526001600160a01b038416600482015260248101829052604481018390526064016105b4565b610976848484840360006108a6565b6001600160a01b038316610a1f57604051634b637e8f60e11b8152600060048201526024016105b4565b6001600160a01b038216610a495760405163ec442f0560e01b8152600060048201526024016105b4565b6106f78383835b6001600160a01b038316610a7b578060026000828254610a709190610cfb565b90915550610aed9050565b6001600160a01b03831660009081526020819052604090205481811015610ace5760405163391434e360e21b81526001600160a01b038516600482015260248101829052604481018390526064016105b4565b6001600160a01b03841660009081526020819052604090209082900390555b6001600160a01b038216610b0957600280548290039055610b28565b6001600160a01b03821660009081526020819052604090208054820190555b816001600160a01b0316836001600160a01b03167fddf252ad1be2c89b69c2b068fc378daa952ba7f163c4a11628f55a4df523b3ef83604051610b6d91815260200190565b60405180910390a3505050565b600060208083528351808285015260005b81811015610ba757858101830151858201604001528201610b8b565b506000604082860101526040601f19601f8301168501019250505092915050565b80356001600160a01b0381168114610bdf57600080fd5b919050565b60008060408385031215610bf757600080fd5b610c0083610bc8565b946020939093013593505050565b600060208284031215610c2057600080fd5b61069c82610bc8565b600080600060608486031215610c3e57600080fd5b610c4784610bc8565b9250610c5560208501610bc8565b9150604084013590509250925092565b60008060408385031215610c7857600080fd5b610c8183610bc8565b9150610c8f60208401610bc8565b90509250929050565b600181811c90821680610cac57607f821691505b602082108103610ccc57634e487b7160e01b600052602260045260246000fd5b50919050565b634e487b7160e01b600052601160045260246000fd5b818103818111156103a9576103a9610cd2565b808201808211156103a9576103a9610cd2565b80820281158282048414176103a9576103a9610cd2565b600082610d4257634e487b7160e01b600052601260045260246000fd5b50049056fea2646970667358221220a4fe3f716df8a4cee344fe5881a260659891f3658e726b9161f7271e39da31b864736f6c63430008140033",
  "linkReferences": {},
  "deployedLinkReferences": {}
}