{
  "_format": "hh-sol-artifact-1",
  "contractName": "ProductionPriceOracle",
  "sourceName": "contracts/ProductionPriceOracle.sol",
  "abi": [
    {
      "inputs": [],
      "stateMutability": "nonpayable",
      "type": "constructor"
    },
    {
      "inputs": [
        {
          "internalType": "address",
          "name": "owner",
          "type": "address"
        }
      ],
      "name": "OwnableInvalidOwner",
      "type": "error"
    },
    {
      "inputs": [
        {
          "internalType": "address",
          "name": "account",
          "type": "address"
        }
      ],
      "name": "OwnableUnauthorizedAccount",
      "type": "error"
    },
    {
      "anonymous": false,
      "inputs": [
        {
          "indexed": true,
          "internalType": "address",
          "name": "previousOwner",
          "type": "address"
        },
        {
          "indexed": true,
          "internalType": "address",
          "name": "newOwner",
          "type": "address"
        }
      ],
      "name": "OwnershipTransferred",
      "type": "event"
    },
    {
      "inputs": [
        {
          "internalType": "address",
          "name": "asset",
          "type": "address"
        },
        {
          "internalType": "uint256",
          "name": "amount",
          "type": "uint256"
        }
      ],
      "name": "getAssetValue",
      "outputs": [
        {
          "internalType": "uint256",
          "name": "",
          "type": "uint256"
        }
      ],
      "stateMutability": "view",
      "type": "function"
    },
    {
      "inputs": [
        {
          "internalType": "address",
          "name": "asset",
          "type": "address"
        }
      ],
      "name": "getLatestPrice",
      "outputs": [
        {
          "internalType": "uint256",
          "name": "",
          "type": "uint256"
        }
      ],
      "stateMutability": "view",
      "type": "function"
    },
    {
      "inputs": [],
      "name": "owner",
      "outputs": [
        {
          "internalType": "address",
          "name": "",
          "type": "address"
        }
      ],
      "stateMutability": "view",
      "type": "function"
    },
    {
      "inputs": [
        {
          "internalType": "address",
          "name": "",
          "type": "address"
        }
      ],
      "name": "priceFeeds",
      "outputs": [
        {
          "internalType": "contract AggregatorV3Interface",
          "name": "",
          "type": "address"
        }
      ],
      "stateMutability": "view",
      "type": "function"
    },
    {
      "inputs": [],
      "name": "renounceOwnership",
      "outputs": [],
      "stateMutability": "nonpayable",
      "type": "function"
    },
    {
      "inputs": [
        {
          "internalType": "address",
          "name": "asset",
          "type": "address"
        },
        {
          "internalType": "address",
          "name": "chainlinkFeed",
          "type": "address"
        }
      ],
      "name": "setPriceFeed",
      "outputs": [],
      "stateMutability": "nonpayable",
      "type": "function"
    },
    {
      "inputs": [
        {
          "internalType": "address",
          "name": "newOwner",
          "type": "address"
        }
      ],
      "name": "transferOwnership",
      "outputs": [],
      "stateMutability": "nonpayable",
      "type": "function"
    }
  ],
  "bytecode": "0x608060405234801561001057600080fd5b50338061003757604051631e4fbdf760e01b81526000600482015260240160405180910390fd5b61004081610046565b50610096565b600080546001600160a01b038381166001600160a01b0319831681178455604051919092169283917f8be0079c531659141344cd1fd0a4f28419497f9722a3daafe3b4186f6b6457e09190a35050565b610509806100a56000396000f3fe608060405234801561001057600080fd5b506004361061007d5760003560e01c806376e112861161005b57806376e11286146100c55780638da5cb5b146100d85780639dcb511a146100fd578063f2fde38b1461012657600080fd5b806316345f18146100825780632fccf0fc146100a8578063715018a6146100bb575b600080fd5b6100956100903660046103aa565b610139565b6040519081526020015b60405180910390f35b6100956100b63660046103c5565b610249565b6100c3610289565b005b6100c36100d33660046103ef565b61029d565b6000546001600160a01b03165b6040516001600160a01b03909116815260200161009f565b6100e561010b3660046103aa565b6001602052600090815260409020546001600160a01b031681565b6100c36101343660046103aa565b6102d3565b6001600160a01b03808216600090815260016020526040812054909116806101985760405162461bcd60e51b815260206004820152600d60248201526c139bc81c1c9a58d94819995959609a1b60448201526064015b60405180910390fd5b6000816001600160a01b031663feaf968c6040518163ffffffff1660e01b815260040160a060405180830381865afa1580156101d8573d6000803e3d6000fd5b505050506040513d601f19601f820116820180604052508101906101fc919061043c565b505050915050600081136102425760405162461bcd60e51b815260206004820152600d60248201526c496e76616c696420707269636560981b604482015260640161018f565b9392505050565b60008061025584610139565b90506305f5e100610266828561048c565b610275906402540be40061048c565b61027f91906104b1565b9150505b92915050565b610291610311565b61029b600061033e565b565b6102a5610311565b6001600160a01b03918216600090815260016020526040902080546001600160a01b03191691909216179055565b6102db610311565b6001600160a01b03811661030557604051631e4fbdf760e01b81526000600482015260240161018f565b61030e8161033e565b50565b6000546001600160a01b0316331461029b5760405163118cdaa760e01b815233600482015260240161018f565b600080546001600160a01b038381166001600160a01b0319831681178455604051919092169283917f8be0079c531659141344cd1fd0a4f28419497f9722a3daafe3b4186f6b6457e09190a35050565b80356001600160a01b03811681146103a557600080fd5b919050565b6000602082840312156103bc57600080fd5b6102428261038e565b600080604083850312156103d857600080fd5b6103e18361038e565b946020939093013593505050565b6000806040838503121561040257600080fd5b61040b8361038e565b91506104196020840161038e565b90509250929050565b805169ffffffffffffffffffff811681146103a557600080fd5b600080600080600060a0868803121561045457600080fd5b61045d86610422565b945060208601519350604086015192506060860151915061048060808701610422565b90509295509295909350565b808202811582820484141761028357634e487b7160e01b600052601160045260246000fd5b6000826104ce57634e487b7160e01b600052601260045260246000fd5b50049056fea2646970667358221220db5931159259dc42398f615668e1675c420de1f013561ddcf619e1b1a3063e1e64736f6c63430008140033",
  "linkReferences": {},
  "deployedLinkReferences": {}
}