{
  "_format": "hh-sol-artifact-1",
  "contractName": "MockFBTC",
  "sourceName": "contracts/MockFBTC.sol",
  "abi": [
    {
      "inputs": [],
      "stateMutability": "nonpayable",
      "type": "constructor"
    },
    {
      "inputs": [
        {
          "internalType": "address",
          "name": "spender",
          "type": "address"
        },
        {
          "internalType": "uint256",
          "name": "allowance",
          "type": "uint256"
        },
        {
          "internalType": "uint256",
          "name": "needed",
          "type": "uint256"
        }
      ],
      "name": "ERC20InsufficientAllowance",
      "type": "error"
    },
    {
      "inputs": [
        {
          "internalType": "address",
          "name": "sender",
          "type": "address"
        },
        {
          "internalType": "uint256",
          "name": "balance",
          "type": "uint256"
        },
        {
          "internalType": "uint256",
          "name": "needed",
          "type": "uint256"
        }
      ],
      "name": "ERC20InsufficientBalance",
      "type": "error"
    },
    {
      "inputs": [
        {
          "internalType": "address",
          "name": "approver",
          "type": "address"
        }
      ],
      "name": "ERC20InvalidApprover",
      "type": "error"
    },
    {
      "inputs": [
        {
          "internalType": "address",
          "name": "receiver",
          "type": "address"
        }
      ],
      "name": "ERC20InvalidReceiver",
      "type": "error"
    },
    {
      "inputs": [
        {
          "internalType": "address",
          "name": "sender",
          "type": "address"
        }
      ],
      "name": "ERC20InvalidSender",
      "type": "error"
    },
    {
      "inputs": [
        {
          "internalType": "address",
          "name": "spender",
          "type": "address"
        }
      ],
      "name": "ERC20InvalidSpender",
      "type": "error"
    },
    {
      "inputs": [
        {
          "internalType": "address",
          "name": "owner",
          "type": "address"
        }
      ],
      "name": "OwnableInvalidOwner",
      "type": "error"
    },
    {
      "inputs": [
        {
          "internalType": "address",
          "name": "account",
          "type": "address"
        }
      ],
      "name": "OwnableUnauthorizedAccount",
      "type": "error"
    },
    {
      "anonymous": false,
      "inputs": [
        {
          "indexed": true,
          "internalType": "address",
          "name": "owner",
          "type": "address"
        },
        {
          "indexed": true,
          "internalType": "address",
          "name": "spender",
          "type": "address"
        },
        {
          "indexed": false,
          "internalType": "uint256",
          "name": "value",
          "type": "uint256"
        }
      ],
      "name": "Approval",
      "type": "event"
    },
    {
      "anonymous": false,
      "inputs": [
        {
          "indexed": true,
          "internalType": "address",
          "name": "previousOwner",
          "type": "address"
        },
        {
          "indexed": true,
          "internalType": "address",
          "name": "newOwner",
          "type": "address"
        }
      ],
      "name": "OwnershipTransferred",
      "type": "event"
    },
    {
      "anonymous": false,
      "inputs": [
        {
          "indexed": true,
          "internalType": "address",
          "name": "from",
          "type": "address"
        },
        {
          "indexed": true,
          "internalType": "address",
          "name": "to",
          "type": "address"
        },
        {
          "indexed": false,
          "internalType": "uint256",
          "name": "value",
          "type": "uint256"
        }
      ],
      "name": "Transfer",
      "type": "event"
    },
    {
      "anonymous": false,
      "inputs": [
        {
          "indexed": true,
          "internalType": "address",
          "name": "user",
          "type": "address"
        },
        {
          "indexed": false,
          "internalType": "uint256",
          "name": "amount",
          "type": "uint256"
        }
      ],
      "name": "YieldAccumulated",
      "type": "event"
    },
    {
      "anonymous": false,
      "inputs": [
        {
          "indexed": true,
          "internalType": "address",
          "name": "user",
          "type": "address"
        },
        {
          "indexed": false,
          "internalType": "uint256",
          "name": "amount",
          "type": "uint256"
        }
      ],
      "name": "YieldClaimed",
      "type": "event"
    },
    {
      "inputs": [],
      "name": "RATE_DENOMINATOR",
      "outputs": [
        {
          "internalType": "uint256",
          "name": "",
          "type": "uint256"
        }
      ],
      "stateMutability": "view",
      "type": "function"
    },
    {
      "inputs": [],
      "name": "SECONDS_PER_YEAR",
      "outputs": [
        {
          "internalType": "uint256",
          "name": "",
          "type": "uint256"
        }
      ],
      "stateMutability": "view",
      "type": "function"
    },
    {
      "inputs": [],
      "name": "YIELD_RATE",
      "outputs": [
        {
          "internalType": "uint256",
          "name": "",
          "type": "uint256"
        }
      ],
      "stateMutability": "view",
      "type": "function"
    },
    {
      "inputs": [
        {
          "internalType": "address",
          "name": "owner",
          "type": "address"
        },
        {
          "internalType": "address",
          "name": "spender",
          "type": "address"
        }
      ],
      "name": "allowance",
      "outputs": [
        {
          "internalType": "uint256",
          "name": "",
          "type": "uint256"
        }
      ],
      "stateMutability": "view",
      "type": "function"
    },
    {
      "inputs": [
        {
          "internalType": "address",
          "name": "spender",
          "type": "address"
        },
        {
          "internalType": "uint256",
          "name": "value",
          "type": "uint256"
        }
      ],
      "name": "approve",
      "outputs": [
        {
          "internalType": "bool",
          "name": "",
          "type": "bool"
        }
      ],
      "stateMutability": "nonpayable",
      "type": "function"
    },
    {
      "inputs": [
        {
          "internalType": "address",
          "name": "account",
          "type": "address"
        }
      ],
      "name": "balanceOf",
      "outputs": [
        {
          "internalType": "uint256",
          "name": "",
          "type": "uint256"
        }
      ],
      "stateMutability": "view",
      "type": "function"
    },
    {
      "inputs": [
        {
          "internalType": "address",
          "name": "user",
          "type": "address"
        }
      ],
      "name": "claimYield",
      "outputs": [
        {
          "internalType": "uint256",
          "name": "",
          "type": "uint256"
        }
      ],
      "stateMutability": "nonpayable",
      "type": "function"
    },
    {
      "inputs": [],
      "name": "decimals",
      "outputs": [
        {
          "internalType": "uint8",
          "name": "",
          "type": "uint8"
        }
      ],
      "stateMutability": "view",
      "type": "function"
    },
    {
      "inputs": [
        {
          "internalType": "address",
          "name": "user",
          "type": "address"
        }
      ],
      "name": "getPendingYield",
      "outputs": [
        {
          "internalType": "uint256",
          "name": "",
          "type": "uint256"
        }
      ],
      "stateMutability": "view",
      "type": "function"
    },
    {
      "inputs": [
        {
          "internalType": "address",
          "name": "to",
          "type": "address"
        },
        {
          "internalType": "uint256",
          "name": "amount",
          "type": "uint256"
        }
      ],
      "name": "mint",
      "outputs": [],
      "stateMutability": "nonpayable",
      "type": "function"
    },
    {
      "inputs": [],
      "name": "name",
      "outputs": [
        {
          "internalType": "string",
          "name": "",
          "type": "string"
        }
      ],
      "stateMutability": "view",
      "type": "function"
    },
    {
      "inputs": [],
      "name": "owner",
      "outputs": [
        {
          "internalType": "address",
          "name": "",
          "type": "address"
        }
      ],
      "stateMutability": "view",
      "type": "function"
    },
    {
      "inputs": [],
      "name": "renounceOwnership",
      "outputs": [],
      "stateMutability": "nonpayable",
      "type": "function"
    },
    {
      "inputs": [],
      "name": "symbol",
      "outputs": [
        {
          "internalType": "string",
          "name": "",
          "type": "string"
        }
      ],
      "stateMutability": "view",
      "type": "function"
    },
    {
      "inputs": [],
      "name": "totalSupply",
      "outputs": [
        {
          "internalType": "uint256",
          "name": "",
          "type": "uint256"
        }
      ],
      "stateMutability": "view",
      "type": "function"
    },
    {
      "inputs": [
        {
          "internalType": "address",
          "name": "to",
          "type": "address"
        },
        {
          "internalType": "uint256",
          "name": "amount",
          "type": "uint256"
        }
      ],
      "name": "transfer",
      "outputs": [
        {
          "internalType": "bool",
          "name": "",
          "type": "bool"
        }
      ],
      "stateMutability": "nonpayable",
      "type": "function"
    },
    {
      "inputs": [
        {
          "internalType": "address",
          "name": "from",
          "type": "address"
        },
        {
          "internalType": "address",
          "name": "to",
          "type": "address"
        },
        {
          "internalType": "uint256",
          "name": "amount",
          "type": "uint256"
        }
      ],
      "name": "transferFrom",
      "outputs": [
        {
          "internalType": "bool",
          "name": "",
          "type": "bool"
        }
      ],
      "stateMutability": "nonpayable",
      "type": "function"
    },
    {
      "inputs": [
        {
          "internalType": "address",
          "name": "newOwner",
          "type": "address"
        }
      ],
      "name": "transferOwnership",
      "outputs": [],
      "stateMutability": "nonpayable",
      "type": "function"
    },
    {
      "inputs": [],
      "name": "updateMyYield",
      "outputs": [],
      "stateMutability": "nonpayable",
      "type": "function"
    },
    {
      "inputs": [
        {
          "internalType": "address",
          "name": "",
          "type": "address"
        }
      ],
      "name": "userYields",
      "outputs": [
        {
          "internalType": "uint256",
          "name": "balance",
          "type": "uint256"
        },
        {
          "internalType": "uint256",
          "name": "lastUpdateTime",
          "type": "uint256"
        },
        {
          "internalType": "uint256",
          "name": "accumulatedYield",
          "type": "uint256"
        }
      ],
      "stateMutability": "view",
      "type": "function"
    }
  ],
  "bytecode": "0x60806040523480156200001157600080fd5b50336040518060400160405280600f81526020016e4d6f636b204d616e746c652042544360881b815250604051806040016040528060048152602001636642544360e01b8152508160039081620000699190620001b3565b506004620000788282620001b3565b5050506001600160a01b038116620000aa57604051631e4fbdf760e01b81526000600482015260240160405180910390fd5b620000b581620000bc565b506200027f565b600580546001600160a01b038381166001600160a01b0319831681179093556040519116919082907f8be0079c531659141344cd1fd0a4f28419497f9722a3daafe3b4186f6b6457e090600090a35050565b634e487b7160e01b600052604160045260246000fd5b600181811c908216806200013957607f821691505b6020821081036200015a57634e487b7160e01b600052602260045260246000fd5b50919050565b601f821115620001ae57600081815260208120601f850160051c81016020861015620001895750805b601f850160051c820191505b81811015620001aa5782815560010162000195565b5050505b505050565b81516001600160401b03811115620001cf57620001cf6200010e565b620001e781620001e0845462000124565b8462000160565b602080601f8311600181146200021f5760008415620002065750858301515b600019600386901b1c1916600185901b178555620001aa565b600085815260208120601f198616915b8281101562000250578886015182559484019460019091019084016200022f565b50858210156200026f5787850151600019600388901b60f8161c191681555b5050505050600190811b01905550565b610d7b806200028f6000396000f3fe608060405234801561001057600080fd5b506004361061012c5760003560e01c80637efad8e0116100ad578063dd62ed3e11610071578063dd62ed3e1461029b578063e6a69ab8146102d4578063e852090a146102df578063eb7c910d146102e7578063f2fde38b146102ef57600080fd5b80637efad8e0146102495780638da5cb5b1461025257806395d89b411461026d578063999927df14610275578063a9059cbb1461028857600080fd5b8063313ce567116100f4578063313ce567146101e157806340c10f19146101f0578063537bb1371461020557806370a0823114610218578063715018a61461024157600080fd5b806306fdde0314610131578063095ea7b31461014f57806318160ddd1461017257806319bd94281461018457806323b872dd146101ce575b600080fd5b610139610302565b6040516101469190610b78565b60405180910390f35b61016261015d366004610be2565b610394565b6040519015158152602001610146565b6002545b604051908152602001610146565b6101b3610192366004610c0c565b60066020526000908152604090208054600182015460029092015490919083565b60408051938452602084019290925290820152606001610146565b6101626101dc366004610c27565b6103ae565b60405160128152602001610146565b6102036101fe366004610be2565b610430565b005b610176610213366004610c0c565b610474565b610176610226366004610c0c565b6001600160a01b031660009081526020819052604090205490565b61020361052b565b61017661271081565b6005546040516001600160a01b039091168152602001610146565b61013961053f565b610176610283366004610c0c565b61054e565b610162610296366004610be2565b61062a565b6101766102a9366004610c63565b6001600160a01b03918216600090815260016020908152604080832093909416825291909152205490565b6101766301e1338081565b61017660fa81565b6102036106a1565b6102036102fd366004610c0c565b6106aa565b60606003805461031190610c96565b80601f016020809104026020016040519081016040528092919081815260200182805461033d90610c96565b801561038a5780601f1061035f5761010080835404028352916020019161038a565b820191906000526020600020905b81548152906001019060200180831161036d57829003601f168201915b5050505050905090565b6000336103a28185856106e8565b60019150505b92915050565b60006103b9846106fa565b6103c2836106fa565b6001600160a01b038416600090815260066020526040812080548492906103ea908490610ce6565b90915550506001600160a01b03831660009081526006602052604081208054849290610417908490610cf9565b9091555061042890508484846107bd565b949350505050565b61043a82826107e1565b610443826106fa565b6001600160a01b0382166000908152600660205260408120805483929061046b908490610cf9565b90915550505050565b6001600160a01b038116600090815260066020908152604080832081516060810183528154808252600183015494820194909452600290910154918101919091529082036104c6576040015192915050565b60008160200151426104d89190610ce6565b905060006104ec6301e13380612710610d0c565b835183906104fc9060fa90610d0c565b6105069190610d0c565b6105109190610d23565b90508083604001516105229190610cf9565b95945050505050565b610533610817565b61053d6000610844565b565b60606004805461031190610c96565b6000610559826106fa565b6001600160a01b038216600090815260066020526040902060020154806105bb5760405162461bcd60e51b81526020600482015260116024820152704e6f207969656c6420746f20636c61696d60781b60448201526064015b60405180910390fd5b6001600160a01b0383166000908152600660205260408120600201556105e133826107e1565b826001600160a01b03167fc04825ba3f383b602255d2a13065a68e325c65c9e0ed5d031ea2b06f641873af8260405161061c91815260200190565b60405180910390a292915050565b6000610635336106fa565b61063e836106fa565b336000908152600660205260408120805484929061065d908490610ce6565b90915550506001600160a01b0383166000908152600660205260408120805484929061068a908490610cf9565b9091555061069a90508383610896565b9392505050565b61053d336106fa565b6106b2610817565b6001600160a01b0381166106dc57604051631e4fbdf760e01b8152600060048201526024016105b2565b6106e581610844565b50565b6106f583838360016108a4565b505050565b6001600160a01b038116600090815260066020526040812060010154900361073c576001600160a01b0316600090815260066020526040902042600190910155565b600061074782610474565b6001600160a01b03831660009081526006602052604090206002810182905542600190910155905080156107b957816001600160a01b03167f23e1d823874ceb27840409b5cce587a305ffb2d4bcbf64e03a0b7d243d24ecd8826040516107b091815260200190565b60405180910390a25b5050565b6000336107cb85828561097a565b6107d68585856109f3565b506001949350505050565b6001600160a01b03821661080b5760405163ec442f0560e01b8152600060048201526024016105b2565b6107b960008383610a4e565b6005546001600160a01b0316331461053d5760405163118cdaa760e01b81523360048201526024016105b2565b600580546001600160a01b038381166001600160a01b0319831681179093556040519116919082907f8be0079c531659141344cd1fd0a4f28419497f9722a3daafe3b4186f6b6457e090600090a35050565b6000336103a28185856109f3565b6001600160a01b0384166108ce5760405163e602df0560e01b8152600060048201526024016105b2565b6001600160a01b0383166108f857604051634a1406b160e11b8152600060048201526024016105b2565b6001600160a01b038085166000908152600160209081526040808320938716835292905220829055801561097457826001600160a01b0316846001600160a01b03167f8c5be1e5ebec7d5bd14f71427d1e84f3dd0314c0f7b2291e5b200ac8c7c3b9258460405161096b91815260200190565b60405180910390a35b50505050565b6001600160a01b0383811660009081526001602090815260408083209386168352929052205460001981101561097457818110156109e457604051637dc7a0d960e11b81526001600160a01b038416600482015260248101829052604481018390526064016105b2565b610974848484840360006108a4565b6001600160a01b038316610a1d57604051634b637e8f60e11b8152600060048201526024016105b2565b6001600160a01b038216610a475760405163ec442f0560e01b8152600060048201526024016105b2565b6106f58383835b6001600160a01b038316610a79578060026000828254610a6e9190610cf9565b90915550610aeb9050565b6001600160a01b03831660009081526020819052604090205481811015610acc5760405163391434e360e21b81526001600160a01b038516600482015260248101829052604481018390526064016105b2565b6001600160a01b03841660009081526020819052604090209082900390555b6001600160a01b038216610b0757600280548290039055610b26565b6001600160a01b03821660009081526020819052604090208054820190555b816001600160a01b0316836001600160a01b03167fddf252ad1be2c89b69c2b068fc378daa952ba7f163c4a11628f55a4df523b3ef83604051610b6b91815260200190565b60405180910390a3505050565b600060208083528351808285015260005b81811015610ba557858101830151858201604001528201610b89565b506000604082860101526040601f19601f8301168501019250505092915050565b80356001600160a01b0381168114610bdd57600080fd5b919050565b60008060408385031215610bf557600080fd5b610bfe83610bc6565b946020939093013593505050565b600060208284031215610c1e57600080fd5b61069a82610bc6565b600080600060608486031215610c3c57600080fd5b610c4584610bc6565b9250610c5360208501610bc6565b9150604084013590509250925092565b60008060408385031215610c7657600080fd5b610c7f83610bc6565b9150610c8d60208401610bc6565b90509250929050565b600181811c90821680610caa57607f821691505b602082108103610cca57634e487b7160e01b600052602260045260246000fd5b50919050565b634e487b7160e01b600052601160045260246000fd5b818103818111156103a8576103a8610cd0565b808201808211156103a8576103a8610cd0565b80820281158282048414176103a8576103a8610cd0565b600082610d4057634e487b7160e01b600052601260045260246000fd5b50049056fea264697066735822122085c023bfffcd5fcadcd4f90f9a46e962a3767dc9338d8d649ac2974553290b8f64736f6c63430008140033",
  "linkReferences": {},
  "deployedLinkReferences": {}
}