{
  "_format": "hh-sol-artifact-1",
  "contractName": "AutoRepaymentVaultManager",
  "sourceName": "contracts/AutoRepaymentVaultManager.sol",
  "abi": [
    {
      "inputs": [
        {
          "internalType": "address",
          "name": "_stablecoin",
          "type": "address"
        },
        {
          "internalType": "address",
          "name": "_priceOracle",
          "type": "address"
        }
      ],
      "stateMutability": "nonpayable",
      "type": "constructor"
    },
    {
      "inputs": [
        {
          "internalType": "address",
          "name": "owner",
          "type": "address"
        }
      ],
      "name": "OwnableInvalidOwner",
      "type": "error"
    },
    {
      "inputs": [
        {
          "internalType": "address",
          "name": "account",
          "type": "address"
        }
      ],
      "name": "OwnableUnauthorizedAccount",
      "type": "error"
    },
    {
      "inputs": [],
      "name": "ReentrancyGuardReentrantCall",
      "type": "error"
    },
    {
      "anonymous": false,
      "inputs": [
        {
          "indexed": true,
          "internalType": "address",
          "name": "user",
          "type": "address"
        },
        {
          "indexed": false,
          "internalType": "uint256",
          "name": "yieldAmount",
          "type": "uint256"
        },
        {
          "indexed": false,
          "internalType": "uint256",
          "name": "debtReduction",
          "type": "uint256"
        }
      ],
      "name": "AutoYieldApplied",
      "type": "event"
    },
    {
      "anonymous": false,
      "inputs": [
        {
          "indexed": true,
          "internalType": "address",
          "name": "keeper",
          "type": "address"
        },
        {
          "indexed": false,
          "internalType": "uint256",
          "name": "processedVaults",
          "type": "uint256"
        }
      ],
      "name": "KeeperExecuted",
      "type": "event"
    },
    {
      "anonymous": false,
      "inputs": [
        {
          "indexed": true,
          "internalType": "address",
          "name": "user",
          "type": "address"
        },
        {
          "indexed": false,
          "internalType": "uint256",
          "name": "collateralSeized",
          "type": "uint256"
        }
      ],
      "name": "Liquidated",
      "type": "event"
    },
    {
      "anonymous": false,
      "inputs": [
        {
          "indexed": true,
          "internalType": "address",
          "name": "user",
          "type": "address"
        },
        {
          "indexed": false,
          "internalType": "uint256",
          "name": "amount",
          "type": "uint256"
        }
      ],
      "name": "LoanIssued",
      "type": "event"
    },
    {
      "anonymous": false,
      "inputs": [
        {
          "indexed": true,
          "internalType": "address",
          "name": "previousOwner",
          "type": "address"
        },
        {
          "indexed": true,
          "internalType": "address",
          "name": "newOwner",
          "type": "address"
        }
      ],
      "name": "OwnershipTransferred",
      "type": "event"
    },
    {
      "anonymous": false,
      "inputs": [
        {
          "indexed": true,
          "internalType": "address",
          "name": "user",
          "type": "address"
        }
      ],
      "name": "VaultClosed",
      "type": "event"
    },
    {
      "anonymous": false,
      "inputs": [
        {
          "indexed": true,
          "internalType": "address",
          "name": "user",
          "type": "address"
        },
        {
          "indexed": false,
          "internalType": "address",
          "name": "collateral",
          "type": "address"
        },
        {
          "indexed": false,
          "internalType": "uint256",
          "name": "amount",
          "type": "uint256"
        }
      ],
      "name": "VaultCreated",
      "type": "event"
    },
    {
      "inputs": [],
      "name": "BASIS_POINTS",
      "outputs": [
        {
          "internalType": "uint256",
          "name": "",
          "type": "uint256"
        }
      ],
      "stateMutability": "view",
      "type": "function"
    },
    {
      "inputs": [],
      "name": "LIQUIDATION_THRESHOLD",
      "outputs": [
        {
          "internalType": "uint256",
          "name": "",
          "type": "uint256"
        }
      ],
      "stateMutability": "view",
      "type": "function"
    },
    {
      "inputs": [],
      "name": "LTV_RATIO",
      "outputs": [
        {
          "internalType": "uint256",
          "name": "",
          "type": "uint256"
        }
      ],
      "stateMutability": "view",
      "type": "function"
    },
    {
      "inputs": [],
      "name": "PROTOCOL_FEE",
      "outputs": [
        {
          "internalType": "uint256",
          "name": "",
          "type": "uint256"
        }
      ],
      "stateMutability": "view",
      "type": "function"
    },
    {
      "inputs": [
        {
          "internalType": "address",
          "name": "keeper",
          "type": "address"
        }
      ],
      "name": "addKeeper",
      "outputs": [],
      "stateMutability": "nonpayable",
      "type": "function"
    },
    {
      "inputs": [
        {
          "internalType": "address",
          "name": "collateral",
          "type": "address"
        }
      ],
      "name": "addSupportedCollateral",
      "outputs": [],
      "stateMutability": "nonpayable",
      "type": "function"
    },
    {
      "inputs": [
        {
          "internalType": "uint256",
          "name": "",
          "type": "uint256"
        }
      ],
      "name": "allVaultOwners",
      "outputs": [
        {
          "internalType": "address",
          "name": "",
          "type": "address"
        }
      ],
      "stateMutability": "view",
      "type": "function"
    },
    {
      "inputs": [],
      "name": "autoCheckInterval",
      "outputs": [
        {
          "internalType": "uint256",
          "name": "",
          "type": "uint256"
        }
      ],
      "stateMutability": "view",
      "type": "function"
    },
    {
      "inputs": [],
      "name": "autoRepaymentCount",
      "outputs": [
        {
          "internalType": "uint256",
          "name": "",
          "type": "uint256"
        }
      ],
      "stateMutability": "view",
      "type": "function"
    },
    {
      "inputs": [
        {
          "internalType": "address",
          "name": "collateralAsset",
          "type": "address"
        },
        {
          "internalType": "uint256",
          "name": "collateralAmount",
          "type": "uint256"
        },
        {
          "internalType": "uint256",
          "name": "borrowAmount",
          "type": "uint256"
        }
      ],
      "name": "depositCollateralAndBorrow",
      "outputs": [],
      "stateMutability": "nonpayable",
      "type": "function"
    },
    {
      "inputs": [
        {
          "internalType": "uint256",
          "name": "start",
          "type": "uint256"
        },
        {
          "internalType": "uint256",
          "name": "limit",
          "type": "uint256"
        }
      ],
      "name": "getAllVaultOwners",
      "outputs": [
        {
          "internalType": "address[]",
          "name": "",
          "type": "address[]"
        }
      ],
      "stateMutability": "view",
      "type": "function"
    },
    {
      "inputs": [
        {
          "internalType": "address",
          "name": "user",
          "type": "address"
        }
      ],
      "name": "getVaultInfo",
      "outputs": [
        {
          "internalType": "uint256",
          "name": "collateral",
          "type": "uint256"
        },
        {
          "internalType": "uint256",
          "name": "debt",
          "type": "uint256"
        },
        {
          "internalType": "uint256",
          "name": "pendingYield",
          "type": "uint256"
        },
        {
          "internalType": "uint256",
          "name": "healthFactor",
          "type": "uint256"
        },
        {
          "internalType": "bool",
          "name": "active",
          "type": "bool"
        },
        {
          "internalType": "bool",
          "name": "readyForAutoRepay",
          "type": "bool"
        }
      ],
      "stateMutability": "view",
      "type": "function"
    },
    {
      "inputs": [
        {
          "internalType": "address",
          "name": "",
          "type": "address"
        }
      ],
      "name": "keepers",
      "outputs": [
        {
          "internalType": "bool",
          "name": "",
          "type": "bool"
        }
      ],
      "stateMutability": "view",
      "type": "function"
    },
    {
      "inputs": [],
      "name": "minYieldThreshold",
      "outputs": [
        {
          "internalType": "uint256",
          "name": "",
          "type": "uint256"
        }
      ],
      "stateMutability": "view",
      "type": "function"
    },
    {
      "inputs": [],
      "name": "owner",
      "outputs": [
        {
          "internalType": "address",
          "name": "",
          "type": "address"
        }
      ],
      "stateMutability": "view",
      "type": "function"
    },
    {
      "inputs": [],
      "name": "priceOracle",
      "outputs": [
        {
          "internalType": "address",
          "name": "",
          "type": "address"
        }
      ],
      "stateMutability": "view",
      "type": "function"
    },
    {
      "inputs": [
        {
          "internalType": "address",
          "name": "user",
          "type": "address"
        }
      ],
      "name": "processAutoRepayment",
      "outputs": [],
      "stateMutability": "nonpayable",
      "type": "function"
    },
    {
      "inputs": [
        {
          "internalType": "address[]",
          "name": "users",
          "type": "address[]"
        }
      ],
      "name": "processMultipleAutoRepayments",
      "outputs": [],
      "stateMutability": "nonpayable",
      "type": "function"
    },
    {
      "inputs": [],
      "name": "renounceOwnership",
      "outputs": [],
      "stateMutability": "nonpayable",
      "type": "function"
    },
    {
      "inputs": [],
      "name": "stablecoin",
      "outputs": [
        {
          "internalType": "address",
          "name": "",
          "type": "address"
        }
      ],
      "stateMutability": "view",
      "type": "function"
    },
    {
      "inputs": [
        {
          "internalType": "address",
          "name": "",
          "type": "address"
        }
      ],
      "name": "supportedCollateral",
      "outputs": [
        {
          "internalType": "bool",
          "name": "",
          "type": "bool"
        }
      ],
      "stateMutability": "view",
      "type": "function"
    },
    {
      "inputs": [],
      "name": "totalProtocolRevenue",
      "outputs": [
        {
          "internalType": "uint256",
          "name": "",
          "type": "uint256"
        }
      ],
      "stateMutability": "view",
      "type": "function"
    },
    {
      "inputs": [],
      "name": "totalVaults",
      "outputs": [
        {
          "internalType": "uint256",
          "name": "",
          "type": "uint256"
        }
      ],
      "stateMutability": "view",
      "type": "function"
    },
    {
      "inputs": [
        {
          "internalType": "address",
          "name": "newOwner",
          "type": "address"
        }
      ],
      "name": "transferOwnership",
      "outputs": [],
      "stateMutability": "nonpayable",
      "type": "function"
    },
    {
      "inputs": [
        {
          "internalType": "address",
          "name": "",
          "type": "address"
        }
      ],
      "name": "vaults",
      "outputs": [
        {
          "internalType": "uint256",
          "name": "collateralAmount",
          "type": "uint256"
        },
        {
          "internalType": "uint256",
          "name": "debtAmount",
          "type": "uint256"
        },
        {
          "internalType": "uint256",
          "name": "lastYieldClaim",
          "type": "uint256"
        },
        {
          "internalType": "address",
          "name": "collateralAsset",
          "type": "address"
        },
        {
          "internalType": "bool",
          "name": "isActive",
          "type": "bool"
        },
        {
          "internalType": "uint256",
          "name": "lastAutoCheck",
          "type": "uint256"
        }
      ],
      "stateMutability": "view",
      "type": "function"
    },
    {
      "inputs": [],
      "name": "withdrawCollateral",
      "outputs": [],
      "stateMutability": "nonpayable",
      "type": "function"
    }
  ],
  "bytecode": "0x60c060405266038d7ea4c68000600755610e106008553480156200002257600080fd5b50604051620018e1380380620018e183398101604081905262000045916200011e565b600160005533806200007157604051631e4fbdf760e01b81526000600482015260240160405180910390fd5b6200007c81620000af565b506001600160a01b039182166080521660a052336000908152600460205260409020805460ff1916600117905562000156565b600180546001600160a01b038381166001600160a01b0319831681179093556040519116919082907f8be0079c531659141344cd1fd0a4f28419497f9722a3daafe3b4186f6b6457e090600090a35050565b80516001600160a01b03811681146200011957600080fd5b919050565b600080604083850312156200013257600080fd5b6200013d8362000101565b91506200014d6020840162000101565b90509250929050565b60805160a05161174962000198600039600081816101b3015281816105a001528181610d0301526110a90152600081816103ee01526107e501526117496000f3fe608060405234801561001057600080fd5b506004361061018e5760003560e01c80638fa3c532116100de578063b5d4a12611610097578063e73a4e8811610071578063e73a4e88146103d6578063e9cbd822146103e9578063f2fde38b14610410578063fa550eba1461042357600080fd5b8063b5d4a126146103b2578063e1f1c4a7146103c5578063e68f2195146103cd57600080fd5b80638fa3c5321461029f57806390229af7146102b257806390a8ae9b146102f65780639a398580146102fe578063a622ee7c1461031e578063ab19582d146103a957600080fd5b80635696b1891161014b578063715018a611610125578063715018a6146102745780638c37f11d1461027c5780638d654023146102855780638da5cb5b1461028e57600080fd5b80635696b1891461025b57806357ed6c171461026357806359c153be1461026c57600080fd5b80630b4501fd146101935780632630c12f146101ae5780633bbd64bc146101ed5780634032b72b1461022057806344def84314610235578063536db2e614610248575b600080fd5b61019b601481565b6040519081526020015b60405180910390f35b6101d57f000000000000000000000000000000000000000000000000000000000000000081565b6040516001600160a01b0390911681526020016101a5565b6102106101fb3660046114cc565b60046020526000908152604090205460ff1681565b60405190151581526020016101a5565b61023361022e3660046114cc565b610446565b005b6102336102433660046114ee565b610472565b6102336102563660046114cc565b6108e5565b61019b604681565b61019b600a5481565b610233610911565b610233610a49565b61019b60095481565b61019b60065481565b6001546001600160a01b03166101d5565b6102336102ad366004611521565b610a5b565b6102c56102c03660046114cc565b610bb9565b60408051968752602087019590955293850192909252606084015215156080830152151560a082015260c0016101a5565b61019b605581565b61031161030c366004611596565b610dbe565b6040516101a591906115b8565b61037161032c3660046114cc565b60026020819052600091825260409091208054600182015492820154600383015460049093015491939290916001600160a01b03821691600160a01b900460ff169086565b604080519687526020870195909552938501929092526001600160a01b031660608401521515608083015260a082015260c0016101a5565b61019b60085481565b6101d56103c0366004611605565b610ebd565b61019b606481565b61019b60075481565b6102336103e43660046114cc565b610ee7565b6101d57f000000000000000000000000000000000000000000000000000000000000000081565b61023361041e3660046114cc565b6113cc565b6102106104313660046114cc565b60036020526000908152604090205460ff1681565b61044e611407565b6001600160a01b03166000908152600460205260409020805460ff19166001179055565b61047a611434565b6001600160a01b03831660009081526003602052604090205460ff166104e05760405162461bcd60e51b8152602060048201526016602482015275155b9cdd5c1c1bdc9d19590818dbdb1b185d195c985b60521b60448201526064015b60405180910390fd5b33600090815260026020526040902060030154600160a01b900460ff16156105395760405162461bcd60e51b815260206004820152600c60248201526b5661756c742065786973747360a01b60448201526064016104d7565b600081116105775760405162461bcd60e51b815260206004820152600b60248201526a4d75737420626f72726f7760a81b60448201526064016104d7565b604051630bf33c3f60e21b81526001600160a01b038481166004830152602482018490526000917f000000000000000000000000000000000000000000000000000000000000000090911690632fccf0fc90604401602060405180830381865afa1580156105e9573d6000803e3d6000fd5b505050506040513d601f19601f8201168201806040525081019061060d919061161e565b90506000606461061e60468461164d565b6106289190611664565b90508083111561066e5760405162461bcd60e51b8152602060048201526011602482015270115e18d959591cc8131515881b1a5b5a5d607a1b60448201526064016104d7565b6040516323b872dd60e01b8152336004820152306024820152604481018590526001600160a01b038616906323b872dd906064016020604051808303816000875af11580156106c1573d6000803e3d6000fd5b505050506040513d601f19601f820116820180604052508101906106e59190611686565b506040805160c0810182528581526020808201868152428385018181526001600160a01b03808c166060870190815260016080880181815260a089019586523360008181526002998a90529a8b2099518a559651898301559351968801969096555160038701805493511515600160a01b026001600160a81b031990941691909216179190911790555160049093019290925560058054918201815583527f036b6384b5eca791c62761152d0c79bb0604c104a5fb6f4eb0703f3154bb3db00180546001600160a01b031916909117905560068054916107c4836116a8565b909155505060405163a9059cbb60e01b8152336004820152602481018490527f00000000000000000000000000000000000000000000000000000000000000006001600160a01b03169063a9059cbb906044016020604051808303816000875af1158015610836573d6000803e3d6000fd5b505050506040513d601f19601f8201168201806040525081019061085a9190611686565b50604080516001600160a01b03871681526020810186905233917f0b045af6aff86dd2cda5342fd0329a354dc66759ff1eda00d7ecf13a76c7fb3b910160405180910390a260405183815233907f7a954f5289898ac88c79469be62462b769f41c4f171a4f4591ef5a62b6fbf74f9060200160405180910390a250506108e06001600055565b505050565b6108ed611407565b6001600160a01b03166000908152600360205260409020805460ff19166001179055565b610919611434565b3360009081526002602052604090206003810154600160a01b900460ff16801561094557506001810154155b6109835760405162461bcd60e51b815260206004820152600f60248201526e43616e6e6f7420776974686472617760881b60448201526064016104d7565b805460038201805460ff60a01b1981169091556000835560405163a9059cbb60e01b8152336004820152602481018390526001600160a01b0390911690819063a9059cbb906044016020604051808303816000875af11580156109ea573d6000803e3d6000fd5b505050506040513d601f19601f82011682018060405250810190610a0e9190611686565b5060405133907fe878654b01a78b867c21c011576ad0ce2b8ede58ec2b1f232ec8c3d0accc662c90600090a2505050610a476001600055565b565b610a51611407565b610a47600061145e565b610a63611434565b3360009081526004602052604090205460ff1680610a8b57506001546001600160a01b031633145b610ac45760405162461bcd60e51b815260206004820152600a6024820152692737ba1035b2b2b832b960b11b60448201526064016104d7565b6000805b82811015610b74573063e73a4e88858584818110610ae857610ae86116c1565b9050602002016020810190610afd91906114cc565b6040516001600160e01b031960e084901b1681526001600160a01b039091166004820152602401600060405180830381600087803b158015610b3e57600080fd5b505af1925050508015610b4f575060015b15610b625781610b5e816116a8565b9250505b80610b6c816116a8565b915050610ac8565b5060405181815233907f5a34ce705ecfde0b8be1b9c95bfb248047b914b480a5a7a0214d68d86062e7b19060200160405180910390a250610bb56001600055565b5050565b6001600160a01b038181166000908152600260208181526040808420815160c08101835281548152600182015493810193909352928301549082015260038201549384166060820152600160a01b90930460ff1615156080840181905260049091015460a0840152909182918291829182918291610c4c5760008060008060008096509650965096509650965050610db5565b80516020820151606083015160405163537bb13760e01b81526001600160a01b038c81166004830152939a50919850919091169063537bb13790602401602060405180830381865afa158015610ca6573d6000803e3d6000fd5b505050506040513d601f19601f82011682018060405250810190610cca919061161e565b94508515610d8a5760608101518151604051630bf33c3f60e21b81526001600160a01b03928316600482015260248101919091526000917f00000000000000000000000000000000000000000000000000000000000000001690632fccf0fc90604401602060405180830381865afa158015610d4a573d6000803e3d6000fd5b505050506040513d601f19601f82011682018060405250810190610d6e919061161e565b905086610d7c82606461164d565b610d869190611664565b9450505b600192506008548160a00151610da091906116d7565b4210158015610db157506007548510155b9150505b91939550919395565b600554606090600090610dd184866116d7565b11610de557610de083856116d7565b610de9565b6005545b90506000610df785836116ea565b67ffffffffffffffff811115610e0f57610e0f6116fd565b604051908082528060200260200182016040528015610e38578160200160208202803683370190505b509050845b82811015610eb25760058181548110610e5857610e586116c1565b6000918252602090912001546001600160a01b031682610e7888846116ea565b81518110610e8857610e886116c1565b6001600160a01b039092166020928302919091019091015280610eaa816116a8565b915050610e3d565b509150505b92915050565b60058181548110610ecd57600080fd5b6000918252602090912001546001600160a01b0316905081565b610eef611434565b3360009081526004602052604090205460ff1680610f1757506001546001600160a01b031633145b610f505760405162461bcd60e51b815260206004820152600a6024820152692737ba1035b2b2b832b960b11b60448201526064016104d7565b6001600160a01b03811660009081526002602052604090206003810154600160a01b900460ff168015610f87575060008160010154115b610fc35760405162461bcd60e51b815260206004820152600d60248201526c125b9d985b1a59081d985d5b1d609a1b60448201526064016104d7565b600381015460405163537bb13760e01b81526001600160a01b038481166004830152600092169063537bb13790602401602060405180830381865afa158015611010573d6000803e3d6000fd5b505050506040513d601f19601f82011682018060405250810190611034919061161e565b90506007548110156110785760405162461bcd60e51b815260206004820152600d60248201526c5969656c6420746f6f206c6f7760981b60448201526064016104d7565b60038201548254604051630bf33c3f60e21b81526001600160a01b03928316600482015260248101919091526000917f00000000000000000000000000000000000000000000000000000000000000001690632fccf0fc90604401602060405180830381865afa1580156110f0573d6000803e3d6000fd5b505050506040513d601f19601f82011682018060405250810190611114919061161e565b90506000836001015482606461112a919061164d565b6111349190611664565b905060788110156111795760405162461bcd60e51b815260206004820152600f60248201526e155b9a19585b1d1a1e481d985d5b1d608a1b60448201526064016104d7565b600384015460405163999927df60e01b81526001600160a01b038781166004830152600092169063999927df906024016020604051808303816000875af11580156111c8573d6000803e3d6000fd5b505050506040513d601f19601f820116820180604052508101906111ec919061161e565b9050806000036112005750505050506113bf565b6000606461120f60148461164d565b6112199190611664565b9050600061122782846116ea565b9050866001015481106112455750600186018054600090915561125f565b8087600101600082825461125991906116ea565b90915550505b42600288018190556004880155600980548391906000906112819084906116d7565b9091555050600a8054906000611296836116a8565b909155505060038701546001600160a01b031663a9059cbb6112c06001546001600160a01b031690565b6040516001600160e01b031960e084901b1681526001600160a01b039091166004820152602481018590526044016020604051808303816000875af115801561130d573d6000803e3d6000fd5b505050506040513d601f19601f820116820180604052508101906113319190611686565b5060408051848152602081018390526001600160a01b038a16917f56f9d080f52c224c1096cb80fadd8b3ff92a48c0b5aeacdc2bcd3ef1df98df30910160405180910390a286600101546000036113b7576040516001600160a01b038916907fe878654b01a78b867c21c011576ad0ce2b8ede58ec2b1f232ec8c3d0accc662c90600090a25b505050505050505b6113c96001600055565b50565b6113d4611407565b6001600160a01b0381166113fe57604051631e4fbdf760e01b8152600060048201526024016104d7565b6113c98161145e565b6001546001600160a01b03163314610a475760405163118cdaa760e01b81523360048201526024016104d7565b60026000540361145757604051633ee5aeb560e01b815260040160405180910390fd5b6002600055565b600180546001600160a01b038381166001600160a01b0319831681179093556040519116919082907f8be0079c531659141344cd1fd0a4f28419497f9722a3daafe3b4186f6b6457e090600090a35050565b80356001600160a01b03811681146114c757600080fd5b919050565b6000602082840312156114de57600080fd5b6114e7826114b0565b9392505050565b60008060006060848603121561150357600080fd5b61150c846114b0565b95602085013595506040909401359392505050565b6000806020838503121561153457600080fd5b823567ffffffffffffffff8082111561154c57600080fd5b818501915085601f83011261156057600080fd5b81358181111561156f57600080fd5b8660208260051b850101111561158457600080fd5b60209290920196919550909350505050565b600080604083850312156115a957600080fd5b50508035926020909101359150565b6020808252825182820181905260009190848201906040850190845b818110156115f95783516001600160a01b0316835292840192918401916001016115d4565b50909695505050505050565b60006020828403121561161757600080fd5b5035919050565b60006020828403121561163057600080fd5b5051919050565b634e487b7160e01b600052601160045260246000fd5b8082028115828204841417610eb757610eb7611637565b60008261168157634e487b7160e01b600052601260045260246000fd5b500490565b60006020828403121561169857600080fd5b815180151581146114e757600080fd5b6000600182016116ba576116ba611637565b5060010190565b634e487b7160e01b600052603260045260246000fd5b80820180821115610eb757610eb7611637565b81810381811115610eb757610eb7611637565b634e487b7160e01b600052604160045260246000fdfea264697066735822122050aee4c0ecb6a94c4eb4a36ea9286c647cd6aa761d0c3f87bcb4f6bffce4ca6a64736f6c63430008140033",
  "linkReferences": {},
  "deployedLinkReferences": {}
}